{
  "contracts/FactoryNFTMon.sol": {
    "NFTFactory": {
      "abi": [
        {
          "inputs": [
            {
              "internalType": "uint256",
              "name": "_number",
              "type": "uint256"
            }
          ],
          "name": "createNFTMonDefault",
          "outputs": [],
          "stateMutability": "nonpayable",
          "type": "function"
        },
        {
          "inputs": [
            {
              "internalType": "uint256",
              "name": "",
              "type": "uint256"
            }
          ],
          "name": "deployedNFTs",
          "outputs": [
            {
              "internalType": "address",
              "name": "",
              "type": "address"
            }
          ],
          "stateMutability": "view",
          "type": "function"
        },
        {
          "inputs": [],
          "name": "getDeployedNFTs",
          "outputs": [
            {
              "internalType": "address[]",
              "name": "",
              "type": "address[]"
            }
          ],
          "stateMutability": "view",
          "type": "function"
        },
        {
          "inputs": [
            {
              "internalType": "address",
              "name": "_minter",
              "type": "address"
            }
          ],
          "name": "getMintedNFTs",
          "outputs": [
            {
              "internalType": "address[]",
              "name": "",
              "type": "address[]"
            }
          ],
          "stateMutability": "view",
          "type": "function"
        },
        {
          "inputs": [
            {
              "internalType": "address",
              "name": "_user",
              "type": "address"
            }
          ],
          "name": "getMonAmountPerUser",
          "outputs": [
            {
              "internalType": "uint256",
              "name": "",
              "type": "uint256"
            }
          ],
          "stateMutability": "view",
          "type": "function"
        },
        {
          "inputs": [
            {
              "internalType": "address",
              "name": "_fatherNFT",
              "type": "address"
            },
            {
              "internalType": "address",
              "name": "_motherNFT",
              "type": "address"
            },
            {
              "internalType": "string",
              "name": "_name",
              "type": "string"
            }
          ],
          "name": "mateNFTMons",
          "outputs": [],
          "stateMutability": "nonpayable",
          "type": "function"
        },
        {
          "inputs": [
            {
              "internalType": "uint256",
              "name": "_randomNumber",
              "type": "uint256"
            }
          ],
          "name": "setRandomNumber",
          "outputs": [],
          "stateMutability": "nonpayable",
          "type": "function"
        }
      ],
      "evm": {
        "bytecode": {
          "linkReferences": {},
          "object": "6080604052651aba4b4a102a60015534801561001a57600080fd5b506129668061002a6000396000f3fe60806040523480156200001157600080fd5b5060043610620000765760003560e01c806313df8223146200007b578063211432a814620000aa57806362766dec14620000e5578063a33208ee146200010b578063b8889e641462000124578063d6bfea28146200012e578063eb2fd8791462000144575b600080fd5b620000926200008c3660046200090e565b6200015b565b604051620000a1919062000928565b60405180910390f35b620000d6620000bb36600462000959565b6001600160a01b031660009081526002602052604090205490565b604051908152602001620000a1565b620000fc620000f636600462000959565b62000186565b604051620000a191906200097e565b620001226200011c366004620009cd565b620001fe565b005b620000fc620006bc565b620001226200013f3660046200090e565b600155565b62000122620001553660046200090e565b62000720565b600081815481106200016c57600080fd5b6000918252602090912001546001600160a01b0316905081565b6001600160a01b038116600090815260036020908152604091829020805483518184028101840190945280845260609392830182828015620001f257602002820191906000526020600020905b81546001600160a01b03168152600190910190602001808311620001d3575b50505050509050919050565b6000336040516200020f9062000900565b6200021b919062000928565b604051809103906000f08015801562000238573d6000803e3d6000fd5b50336000908152600260205260408120805492935090620002598362000a63565b9091555050336000908152600360209081526040808320805460018101825590845291832090910180546001600160a01b0319166001600160a01b03858116919091179091558151630cfb6f6160e11b81529151908816916319f6dec291600480830192869291908290030181865afa158015620002db573d6000803e3d6000fd5b505050506040513d6000823e601f3d908101601f1916820160405262000305919081019062000b8c565b90506000856001600160a01b03166319f6dec26040518163ffffffff1660e01b8152600401600060405180830381865afa15801562000348573d6000803e3d6000fd5b505050506040513d6000823e601f3d908101601f1916820160405262000372919081019062000b8c565b60405163c47f002760e01b81529091506001600160a01b0384169063c47f002790620003a5908890889060040162000c3f565b600060405180830381600087803b158015620003c057600080fd5b505af1158015620003d5573d6000803e3d6000fd5b50505050826001600160a01b03166311523f4e8360c001518360c001516001546040518463ffffffff1660e01b8152600401620004159392919062000c6e565b600060405180830381600087803b1580156200043057600080fd5b505af115801562000445573d6000803e3d6000fd5b50505050826001600160a01b031663ae8134e0836080015183608001516001546040518463ffffffff1660e01b8152600401620004859392919062000c6e565b600060405180830381600087803b158015620004a057600080fd5b505af1158015620004b5573d6000803e3d6000fd5b505050604080840151838201516001549251631053bcb360e21b81526001600160a01b038816945063414ef2cc93620004f393929160040162000c6e565b600060405180830381600087803b1580156200050e57600080fd5b505af115801562000523573d6000803e3d6000fd5b50505050826001600160a01b03166381e52e56836060015183606001516001546040518463ffffffff1660e01b8152600401620005639392919062000c6e565b600060405180830381600087803b1580156200057e57600080fd5b505af115801562000593573d6000803e3d6000fd5b50505050826001600160a01b0316630aed67fc8360a001518360a001516001546040518463ffffffff1660e01b8152600401620005d39392919062000c6e565b600060405180830381600087803b158015620005ee57600080fd5b505af115801562000603573d6000803e3d6000fd5b50505050826001600160a01b03166386134d2a836020015183602001516001546040518463ffffffff1660e01b8152600401620006439392919062000c6e565b600060405180830381600087803b1580156200065e57600080fd5b505af115801562000673573d6000803e3d6000fd5b505060008054600181018255908052600080516020620029118339815191520180546001600160a01b0319166001600160a01b0396909616959095179094555050505050505050565b606060008054806020026020016040519081016040528092919081815260200182805480156200071657602002820191906000526020600020905b81546001600160a01b03168152600190910190602001808311620006f7575b5050505050905090565b600033604051620007319062000900565b6200073d919062000928565b604051809103906000f0801580156200075a573d6000803e3d6000fd5b503360009081526002602052604081208054929350906200077b8362000a63565b9091555050336000908152600360209081526040822080546001810182559083529082200180546001600160a01b0319166001600160a01b038416179055829003620008245760405163706d35b360e11b8152600060048201526001600160a01b0382169063e0da6b66906024015b600060405180830381600087803b1580156200080557600080fd5b505af11580156200081a573d6000803e3d6000fd5b50505050620008c1565b816001036200085b5760405163706d35b360e11b8152600160048201526001600160a01b0382169063e0da6b6690602401620007ea565b81600203620008c15760405163706d35b360e11b8152600260048201526001600160a01b0382169063e0da6b6690602401600060405180830381600087803b158015620008a757600080fd5b505af1158015620008bc573d6000803e3d6000fd5b505050505b60008054600181018255908052600080516020620029118339815191520180546001600160a01b0319166001600160a01b039290921691909117905550565b611c8c8062000c8583390190565b6000602082840312156200092157600080fd5b5035919050565b6001600160a01b0391909116815260200190565b80356001600160a01b03811681146200095457600080fd5b919050565b6000602082840312156200096c57600080fd5b62000977826200093c565b9392505050565b6020808252825182820181905260009190848201906040850190845b81811015620009c15783516001600160a01b0316835292840192918401916001016200099a565b50909695505050505050565b60008060008060608587031215620009e457600080fd5b620009ef856200093c565b9350620009ff602086016200093c565b925060408501356001600160401b038082111562000a1c57600080fd5b818701915087601f83011262000a3157600080fd5b81358181111562000a4157600080fd5b88602082850101111562000a5457600080fd5b95989497505060200194505050565b60006001820162000a8457634e487b7160e01b600052601160045260246000fd5b5060010190565b634e487b7160e01b600052604160045260246000fd5b60405160e081016001600160401b038111828210171562000ac65762000ac662000a8b565b60405290565b604051601f8201601f191681016001600160401b038111828210171562000af75762000af762000a8b565b604052919050565b600082601f83011262000b1157600080fd5b81516001600160401b0381111562000b2d5762000b2d62000a8b565b602062000b43601f8301601f1916820162000acc565b828152858284870101111562000b5857600080fd5b60005b8381101562000b7857858101830151828201840152820162000b5b565b506000928101909101919091529392505050565b60006020828403121562000b9f57600080fd5b81516001600160401b038082111562000bb757600080fd5b9083019060e0828603121562000bcc57600080fd5b62000bd662000aa1565b82518281111562000be657600080fd5b62000bf48782860162000aff565b8252506020830151602082015260408301516040820152606083015160608201526080830151608082015260a083015160a082015260c083015160c082015280935050505092915050565b60208152816020820152818360408301376000818301604090810191909152601f909201601f19160101919050565b928352602083019190915260408201526060019056fe60806040523480156200001157600080fd5b5060405162001c8c38038062001c8c83398101604081905262000034916200013a565b806040518060400160405280600681526020016527232a26b7b760d11b815250604051806040016040528060048152602001634e46544d60e01b815250816000908162000082919062000211565b50600162000091828262000211565b50506006805460ff19169055506001600160a01b038116620000cd57604051631e4fbdf760e01b81526000600482015260240160405180910390fd5b620000d881620000e0565b5050620002dd565b600680546001600160a01b03838116610100818102610100600160a81b031985161790945560405193909204169182907f8be0079c531659141344cd1fd0a4f28419497f9722a3daafe3b4186f6b6457e090600090a35050565b6000602082840312156200014d57600080fd5b81516001600160a01b03811681146200016557600080fd5b9392505050565b634e487b7160e01b600052604160045260246000fd5b600181811c908216806200019757607f821691505b602082108103620001b857634e487b7160e01b600052602260045260246000fd5b50919050565b601f8211156200020c57600081815260208120601f850160051c81016020861015620001e75750805b601f850160051c820191505b818110156200020857828155600101620001f3565b5050505b505050565b81516001600160401b038111156200022d576200022d6200016c565b62000245816200023e845462000182565b84620001be565b602080601f8311600181146200027d5760008415620002645750858301515b600019600386901b1c1916600185901b17855562000208565b600085815260208120601f198616915b82811015620002ae578886015182559484019460019091019084016200028d565b5085821015620002cd5787850151600019600388901b60f8161c191681555b5050505050600190811b01905550565b61199f80620002ed6000396000f3fe608060405234801561001057600080fd5b506004361061018b5760003560e01c806301ffc9a71461019057806306fdde03146101b8578063081812fc146101cd578063095ea7b3146101ed5780630aed67fc1461020257806311523f4e1461021557806319f6dec21461022857806323b872dd1461023d5780633f4ba83a14610250578063414ef2cc1461020257806342842e0e1461025857806342966c681461026b5780635c975abb1461027e5780636352211e1461028957806370a082311461029c578063715018a6146102bd5780637d9a94f3146102c557806381e52e56146102025780638456cb59146102d857806386134d2a146102025780638da5cb5b146102e05780638e871b07146102e857806395d89b41146102f6578063a1448194146102fe578063a22cb46514610311578063aa3ec0a914610324578063ae8134e01461032d578063b88d4fde14610340578063c47f002714610353578063c87b56dd14610366578063e0da6b6614610379578063e985e9c51461038c578063f2fde38b1461039f575b600080fd5b6101a361019e366004611357565b6103b2565b60405190151581526020015b60405180910390f35b6101c0610404565b6040516101af91906113c4565b6101e06101db3660046113d7565b610496565b6040516101af91906113f0565b6102006101fb366004611420565b6104ab565b005b61020061021036600461144a565b6104ba565b61020061022336600461144a565b610527565b61023061054a565b6040516101af9190611476565b61020061024b3660046114db565b61066a565b6102006106fe565b6102006102663660046114db565b610710565b6102006102793660046113d7565b610730565b60065460ff166101a3565b6101e06102973660046113d7565b61073c565b6102af6102aa366004611517565b610747565b6040519081526020016101af565b61020061078f565b6102006102d33660046113d7565b600755565b6102006107a1565b6101e06107b1565b6102af6001600160ff1b0381565b6101c06107c5565b61020061030c366004611420565b6107d4565b61020061031f366004611532565b6107e6565b6102af60075481565b61020061033b36600461144a565b6107f1565b61020061034e3660046115f9565b61085e565b610200610361366004611674565b610875565b6101c06103743660046113d7565b610881565b6102006103873660046113d7565b610915565b6101a361039a3660046116bc565b610aab565b6102006103ad366004611517565b610ad9565b60006001600160e01b031982166380ac58cd60e01b14806103e357506001600160e01b03198216635b5e139f60e01b145b806103fe57506301ffc9a760e01b6001600160e01b03198316145b92915050565b606060008054610413906116ef565b80601f016020809104026020016040519081016040528092919081815260200182805461043f906116ef565b801561048c5780601f106104615761010080835404028352916020019161048c565b820191906000526020600020905b81548152906001019060200180831161046f57829003601f168201915b5050505050905090565b60006104a182610b14565b506103fe82610b4c565b6104b6828233610b67565b5050565b60006001600160ff1b038211156104d45750611d4c6104d9565b506109c45b60006127106104e8838261173f565b6104f29086611752565b6104fc9190611769565b6127106105098488611752565b6105139190611769565b61051d919061178b565b6009555050505050565b60006001600160ff1b0382111561053f575082610542565b50815b600e55505050565b61058a6040518060e00160405280606081526020016000815260200160008152602001600081526020016000815260200160008152602001600081525090565b60086040518060e00160405290816000820180546105a7906116ef565b80601f01602080910402602001604051908101604052809291908181526020018280546105d3906116ef565b80156106205780601f106105f557610100808354040283529160200191610620565b820191906000526020600020905b81548152906001019060200180831161060357829003601f168201915b505050505081526020016001820154815260200160028201548152602001600382015481526020016004820154815260200160058201548152602001600682015481525050905090565b6001600160a01b03821661069d576000604051633250574960e11b815260040161069491906113f0565b60405180910390fd5b60006106aa838333610b74565b9050836001600160a01b0316816001600160a01b0316146106f8576040516364283d7b60e01b81526001600160a01b0380861660048301526024820184905282166044820152606401610694565b50505050565b610706610b89565b61070e610bbb565b565b61072b8383836040518060200160405280600081525061085e565b505050565b6104b660008233610b74565b60006103fe82610b14565b60006001600160a01b0382166107735760006040516322718ad960e21b815260040161069491906113f0565b506001600160a01b031660009081526003602052604090205490565b610797610b89565b61070e6000610c07565b6107a9610b89565b61070e610c61565b60065461010090046001600160a01b031690565b606060018054610413906116ef565b6107dc610b89565b6104b68282610c9e565b6104b6338383610cb8565b60006001600160ff1b0382111561080b5750611d4c610810565b506109c45b600061271061081f838261173f565b6108299086611752565b6108339190611769565b6127106108408488611752565b61084a9190611769565b610854919061178b565b600c555050505050565b61086984848461066a565b6106f884848484610d4e565b60086104b682826117ec565b606061088c82610b14565b5060006108c160408051808201909152601581527468747470733a2f2f697066732e696f2f697066732f60581b602082015290565b905060008151116108e1576040518060200160405280600081525061090e565b806108ed600754610e65565b6040516020016108fe9291906118ab565b6040516020818303038152906040525b9392505050565b806000036109c6576040805161012081018252600660e082019081526527232a26b7b760d11b610100830152808252624c4b406020830181905292820183905260608201839052608082019290925262a7d8c060a0820152600060c082015290600890819061098490826117ec565b506020820151600182015560408201516002820155606082015160038201556080820151600482015560a0820151600582015560c09091015160069091015550565b80600103610a33576040805161012081018252600660e082019081526527232a26b7b760d11b610100830152808252626acfc060208301819052928201839052606082018390526080820183905260a0820192909252600160c082015290600890819061098490826117ec565b80600203610aa8576040805161012081018252600660e082019081526527232a26b7b760d11b610100830152808252622dc6c06020830152623d090092820192909252621e84806060820152624c4b406080820152620f424060a0820152600260c082015290600890819061098490826117ec565b50565b6001600160a01b03918216600090815260056020908152604080832093909416825291909152205460ff1690565b610ae1610b89565b6001600160a01b038116610b0b576000604051631e4fbdf760e01b815260040161069491906113f0565b610aa881610c07565b600080610b2083610f94565b90506001600160a01b0381166103fe57604051637e27328960e01b815260048101849052602401610694565b6000908152600460205260409020546001600160a01b031690565b61072b8383836001610faf565b6000610b818484846110ac565b949350505050565b33610b926107b1565b6001600160a01b03161461070e573360405163118cdaa760e01b815260040161069491906113f0565b610bc36110c1565b6006805460ff191690557f5db9ee0a495bf2e6ff9c91a7834c1ba4fdd244a5e8aa4e537bd38aeae4b073aa335b604051610bfd91906113f0565b60405180910390a1565b600680546001600160a01b03838116610100818102610100600160a81b031985161790945560405193909204169182907f8be0079c531659141344cd1fd0a4f28419497f9722a3daafe3b4186f6b6457e090600090a35050565b610c696110e4565b6006805460ff191660011790557f62e78cea01bee320cd4e420270b5ea74000d11b0c9f74754ebdbfc544b05a258610bf03390565b6104b6828260405180602001604052806000815250611108565b6001600160a01b038216610ce15781604051630b61174360e31b815260040161069491906113f0565b6001600160a01b03838116600081815260056020908152604080832094871680845294825291829020805460ff191686151590811790915591519182527f17307eab39ab6107e8899845ad3d59bd9653f200f220920489ca2b5937696c31910160405180910390a3505050565b6001600160a01b0383163b156106f857604051630a85bd0160e11b81526001600160a01b0384169063150b7a0290610d909033908890879087906004016118da565b6020604051808303816000875af1925050508015610dcb575060408051601f3d908101601f19168201909252610dc891810190611917565b60015b610e2b573d808015610df9576040519150601f19603f3d011682016040523d82523d6000602084013e610dfe565b606091505b508051600003610e235783604051633250574960e11b815260040161069491906113f0565b805181602001fd5b6001600160e01b03198116630a85bd0160e11b14610e5e5783604051633250574960e11b815260040161069491906113f0565b5050505050565b606060005b60208160ff16108015610e9e5750828160ff1660208110610e8d57610e8d611934565b1a60f81b6001600160f81b03191615155b15610eb55780610ead8161194a565b915050610e6a565b60008160ff166001600160401b03811115610ed257610ed261156e565b6040519080825280601f01601f191660200182016040528015610efc576020820181803683370190505b509050600091505b60208260ff16108015610f385750838260ff1660208110610f2757610f27611934565b1a60f81b6001600160f81b03191615155b1561090e57838260ff1660208110610f5257610f52611934565b1a60f81b818360ff1681518110610f6b57610f6b611934565b60200101906001600160f81b031916908160001a90535081610f8c8161194a565b925050610f04565b6000908152600260205260409020546001600160a01b031690565b8080610fc357506001600160a01b03821615155b1561107c576000610fd384610b14565b90506001600160a01b03831615801590610fff5750826001600160a01b0316816001600160a01b031614155b801561101257506110108184610aab565b155b15611032578260405163a9fbf51f60e01b815260040161069491906113f0565b811561107a5783856001600160a01b0316826001600160a01b03167f8c5be1e5ebec7d5bd14f71427d1e84f3dd0314c0f7b2291e5b200ac8c7c3b92560405160405180910390a45b505b5050600090815260046020526040902080546001600160a01b0319166001600160a01b0392909216919091179055565b60006110b66110e4565b610b8184848461111f565b60065460ff1661070e57604051638dfc202b60e01b815260040160405180910390fd5b60065460ff161561070e5760405163d93c066560e01b815260040160405180910390fd5b6111128383611213565b61072b6000848484610d4e565b60008061112b84610f94565b90506001600160a01b0383161561114757611147818486611278565b6001600160a01b0381161561118557611164600085600080610faf565b6001600160a01b038116600090815260036020526040902080546000190190555b6001600160a01b038516156111b4576001600160a01b0385166000908152600360205260409020805460010190555b60008481526002602052604080822080546001600160a01b0319166001600160a01b0389811691821790925591518793918516917fddf252ad1be2c89b69c2b068fc378daa952ba7f163c4a11628f55a4df523b3ef91a4949350505050565b6001600160a01b03821661123d576000604051633250574960e11b815260040161069491906113f0565b600061124b83836000610b74565b90506001600160a01b0381161561072b5760006040516339e3563760e11b815260040161069491906113f0565b6112838383836112dc565b61072b576001600160a01b0383166112b157604051637e27328960e01b815260048101829052602401610694565b60405163177e802f60e01b81526001600160a01b038316600482015260248101829052604401610694565b60006001600160a01b03831615801590610b815750826001600160a01b0316846001600160a01b0316148061131657506113168484610aab565b80610b815750826001600160a01b031661132f83610b4c565b6001600160a01b031614949350505050565b6001600160e01b031981168114610aa857600080fd5b60006020828403121561136957600080fd5b813561090e81611341565b60005b8381101561138f578181015183820152602001611377565b50506000910152565b600081518084526113b0816020860160208601611374565b601f01601f19169290920160200192915050565b60208152600061090e6020830184611398565b6000602082840312156113e957600080fd5b5035919050565b6001600160a01b0391909116815260200190565b80356001600160a01b038116811461141b57600080fd5b919050565b6000806040838503121561143357600080fd5b61143c83611404565b946020939093013593505050565b60008060006060848603121561145f57600080fd5b505081359360208301359350604090920135919050565b602081526000825160e06020840152611493610100840182611398565b9050602084015160408401526040840151606084015260608401516080840152608084015160a084015260a084015160c084015260c084015160e08401528091505092915050565b6000806000606084860312156114f057600080fd5b6114f984611404565b925061150760208501611404565b9150604084013590509250925092565b60006020828403121561152957600080fd5b61090e82611404565b6000806040838503121561154557600080fd5b61154e83611404565b91506020830135801515811461156357600080fd5b809150509250929050565b634e487b7160e01b600052604160045260246000fd5b60006001600160401b038084111561159e5761159e61156e565b604051601f8501601f19908116603f011681019082821181831017156115c6576115c661156e565b816040528093508581528686860111156115df57600080fd5b858560208301376000602087830101525050509392505050565b6000806000806080858703121561160f57600080fd5b61161885611404565b935061162660208601611404565b92506040850135915060608501356001600160401b0381111561164857600080fd5b8501601f8101871361165957600080fd5b61166887823560208401611584565b91505092959194509250565b60006020828403121561168657600080fd5b81356001600160401b0381111561169c57600080fd5b8201601f810184136116ad57600080fd5b610b8184823560208401611584565b600080604083850312156116cf57600080fd5b6116d883611404565b91506116e660208401611404565b90509250929050565b600181811c9082168061170357607f821691505b60208210810361172357634e487b7160e01b600052602260045260246000fd5b50919050565b634e487b7160e01b600052601160045260246000fd5b818103818111156103fe576103fe611729565b80820281158282048414176103fe576103fe611729565b60008261178657634e487b7160e01b600052601260045260246000fd5b500490565b808201808211156103fe576103fe611729565b601f82111561072b57600081815260208120601f850160051c810160208610156117c55750805b601f850160051c820191505b818110156117e4578281556001016117d1565b505050505050565b81516001600160401b038111156118055761180561156e565b6118198161181384546116ef565b8461179e565b602080601f83116001811461184e57600084156118365750858301515b600019600386901b1c1916600185901b1785556117e4565b600085815260208120601f198616915b8281101561187d5788860151825594840194600190910190840161185e565b508582101561189b5787850151600019600388901b60f8161c191681555b5050505050600190811b01905550565b600083516118bd818460208801611374565b8351908301906118d1818360208801611374565b01949350505050565b6001600160a01b038581168252841660208201526040810183905260806060820181905260009061190d90830184611398565b9695505050505050565b60006020828403121561192957600080fd5b815161090e81611341565b634e487b7160e01b600052603260045260246000fd5b600060ff821660ff810361196057611960611729565b6001019291505056fea2646970667358221220258258daf4b604d9e2b915cd84ce4f9a5a3e314210ff1de54ce4dbc8ff0f902764736f6c63430008140033290decd9548b62a8d60345a988386fc84ba6bc95484008f6362f93160ef3e563a26469706673582212206935e21b354d8517b596defeeace502baf433c00fee4c9bf81cd711b4a78ca7264736f6c63430008140033",
          "opcodes": "PUSH1 0x80 PUSH1 0x40 MSTORE PUSH6 0x1ABA4B4A102A PUSH1 0x1 SSTORE CALLVALUE DUP1 ISZERO PUSH2 0x1A JUMPI PUSH1 0x0 DUP1 REVERT JUMPDEST POP PUSH2 0x2966 DUP1 PUSH2 0x2A PUSH1 0x0 CODECOPY PUSH1 0x0 RETURN INVALID PUSH1 0x80 PUSH1 0x40 MSTORE CALLVALUE DUP1 ISZERO PUSH3 0x11 JUMPI PUSH1 0x0 DUP1 REVERT JUMPDEST POP PUSH1 0x4 CALLDATASIZE LT PUSH3 0x76 JUMPI PUSH1 0x0 CALLDATALOAD PUSH1 0xE0 SHR DUP1 PUSH4 0x13DF8223 EQ PUSH3 0x7B JUMPI DUP1 PUSH4 0x211432A8 EQ PUSH3 0xAA JUMPI DUP1 PUSH4 0x62766DEC EQ PUSH3 0xE5 JUMPI DUP1 PUSH4 0xA33208EE EQ PUSH3 0x10B JUMPI DUP1 PUSH4 0xB8889E64 EQ PUSH3 0x124 JUMPI DUP1 PUSH4 0xD6BFEA28 EQ PUSH3 0x12E JUMPI DUP1 PUSH4 0xEB2FD879 EQ PUSH3 0x144 JUMPI JUMPDEST PUSH1 0x0 DUP1 REVERT JUMPDEST PUSH3 0x92 PUSH3 0x8C CALLDATASIZE PUSH1 0x4 PUSH3 0x90E JUMP JUMPDEST PUSH3 0x15B JUMP JUMPDEST PUSH1 0x40 MLOAD PUSH3 0xA1 SWAP2 SWAP1 PUSH3 0x928 JUMP JUMPDEST PUSH1 0x40 MLOAD DUP1 SWAP2 SUB SWAP1 RETURN JUMPDEST PUSH3 0xD6 PUSH3 0xBB CALLDATASIZE PUSH1 0x4 PUSH3 0x959 JUMP JUMPDEST PUSH1 0x1 PUSH1 0x1 PUSH1 0xA0 SHL SUB AND PUSH1 0x0 SWAP1 DUP2 MSTORE PUSH1 0x2 PUSH1 0x20 MSTORE PUSH1 0x40 SWAP1 KECCAK256 SLOAD SWAP1 JUMP JUMPDEST PUSH1 0x40 MLOAD SWAP1 DUP2 MSTORE PUSH1 0x20 ADD PUSH3 0xA1 JUMP JUMPDEST PUSH3 0xFC PUSH3 0xF6 CALLDATASIZE PUSH1 0x4 PUSH3 0x959 JUMP JUMPDEST PUSH3 0x186 JUMP JUMPDEST PUSH1 0x40 MLOAD PUSH3 0xA1 SWAP2 SWAP1 PUSH3 0x97E JUMP JUMPDEST PUSH3 0x122 PUSH3 0x11C CALLDATASIZE PUSH1 0x4 PUSH3 0x9CD JUMP JUMPDEST PUSH3 0x1FE JUMP JUMPDEST STOP JUMPDEST PUSH3 0xFC PUSH3 0x6BC JUMP JUMPDEST PUSH3 0x122 PUSH3 0x13F CALLDATASIZE PUSH1 0x4 PUSH3 0x90E JUMP JUMPDEST PUSH1 0x1 SSTORE JUMP JUMPDEST PUSH3 0x122 PUSH3 0x155 CALLDATASIZE PUSH1 0x4 PUSH3 0x90E JUMP JUMPDEST PUSH3 0x720 JUMP JUMPDEST PUSH1 0x0 DUP2 DUP2 SLOAD DUP2 LT PUSH3 0x16C JUMPI PUSH1 0x0 DUP1 REVERT JUMPDEST PUSH1 0x0 SWAP2 DUP3 MSTORE PUSH1 0x20 SWAP1 SWAP2 KECCAK256 ADD SLOAD PUSH1 0x1 PUSH1 0x1 PUSH1 0xA0 SHL SUB AND SWAP1 POP DUP2 JUMP JUMPDEST PUSH1 0x1 PUSH1 0x1 PUSH1 0xA0 SHL SUB DUP2 AND PUSH1 0x0 SWAP1 DUP2 MSTORE PUSH1 0x3 PUSH1 0x20 SWAP1 DUP2 MSTORE PUSH1 0x40 SWAP2 DUP3 SWAP1 KECCAK256 DUP1 SLOAD DUP4 MLOAD DUP2 DUP5 MUL DUP2 ADD DUP5 ADD SWAP1 SWAP5 MSTORE DUP1 DUP5 MSTORE PUSH1 0x60 SWAP4 SWAP3 DUP4 ADD DUP3 DUP3 DUP1 ISZERO PUSH3 0x1F2 JUMPI PUSH1 0x20 MUL DUP3 ADD SWAP2 SWAP1 PUSH1 0x0 MSTORE PUSH1 0x20 PUSH1 0x0 KECCAK256 SWAP1 JUMPDEST DUP2 SLOAD PUSH1 0x1 PUSH1 0x1 PUSH1 0xA0 SHL SUB AND DUP2 MSTORE PUSH1 0x1 SWAP1 SWAP2 ADD SWAP1 PUSH1 0x20 ADD DUP1 DUP4 GT PUSH3 0x1D3 JUMPI JUMPDEST POP POP POP POP POP SWAP1 POP SWAP2 SWAP1 POP JUMP JUMPDEST PUSH1 0x0 CALLER PUSH1 0x40 MLOAD PUSH3 0x20F SWAP1 PUSH3 0x900 JUMP JUMPDEST PUSH3 0x21B SWAP2 SWAP1 PUSH3 0x928 JUMP JUMPDEST PUSH1 0x40 MLOAD DUP1 SWAP2 SUB SWAP1 PUSH1 0x0 CREATE DUP1 ISZERO DUP1 ISZERO PUSH3 0x238 JUMPI RETURNDATASIZE PUSH1 0x0 DUP1 RETURNDATACOPY RETURNDATASIZE PUSH1 0x0 REVERT JUMPDEST POP CALLER PUSH1 0x0 SWAP1 DUP2 MSTORE PUSH1 0x2 PUSH1 0x20 MSTORE PUSH1 0x40 DUP2 KECCAK256 DUP1 SLOAD SWAP3 SWAP4 POP SWAP1 PUSH3 0x259 DUP4 PUSH3 0xA63 JUMP JUMPDEST SWAP1 SWAP2 SSTORE POP POP CALLER PUSH1 0x0 SWAP1 DUP2 MSTORE PUSH1 0x3 PUSH1 0x20 SWAP1 DUP2 MSTORE PUSH1 0x40 DUP1 DUP4 KECCAK256 DUP1 SLOAD PUSH1 0x1 DUP2 ADD DUP3 SSTORE SWAP1 DUP5 MSTORE SWAP2 DUP4 KECCAK256 SWAP1 SWAP2 ADD DUP1 SLOAD PUSH1 0x1 PUSH1 0x1 PUSH1 0xA0 SHL SUB NOT AND PUSH1 0x1 PUSH1 0x1 PUSH1 0xA0 SHL SUB DUP6 DUP2 AND SWAP2 SWAP1 SWAP2 OR SWAP1 SWAP2 SSTORE DUP2 MLOAD PUSH4 0xCFB6F61 PUSH1 0xE1 SHL DUP2 MSTORE SWAP2 MLOAD SWAP1 DUP9 AND SWAP2 PUSH4 0x19F6DEC2 SWAP2 PUSH1 0x4 DUP1 DUP4 ADD SWAP3 DUP7 SWAP3 SWAP2 SWAP1 DUP3 SWAP1 SUB ADD DUP2 DUP7 GAS STATICCALL ISZERO DUP1 ISZERO PUSH3 0x2DB JUMPI RETURNDATASIZE PUSH1 0x0 DUP1 RETURNDATACOPY RETURNDATASIZE PUSH1 0x0 REVERT JUMPDEST POP POP POP POP PUSH1 0x40 MLOAD RETURNDATASIZE PUSH1 0x0 DUP3 RETURNDATACOPY PUSH1 0x1F RETURNDATASIZE SWAP1 DUP2 ADD PUSH1 0x1F NOT AND DUP3 ADD PUSH1 0x40 MSTORE PUSH3 0x305 SWAP2 SWAP1 DUP2 ADD SWAP1 PUSH3 0xB8C JUMP JUMPDEST SWAP1 POP PUSH1 0x0 DUP6 PUSH1 0x1 PUSH1 0x1 PUSH1 0xA0 SHL SUB AND PUSH4 0x19F6DEC2 PUSH1 0x40 MLOAD DUP2 PUSH4 0xFFFFFFFF AND PUSH1 0xE0 SHL DUP2 MSTORE PUSH1 0x4 ADD PUSH1 0x0 PUSH1 0x40 MLOAD DUP1 DUP4 SUB DUP2 DUP7 GAS STATICCALL ISZERO DUP1 ISZERO PUSH3 0x348 JUMPI RETURNDATASIZE PUSH1 0x0 DUP1 RETURNDATACOPY RETURNDATASIZE PUSH1 0x0 REVERT JUMPDEST POP POP POP POP PUSH1 0x40 MLOAD RETURNDATASIZE PUSH1 0x0 DUP3 RETURNDATACOPY PUSH1 0x1F RETURNDATASIZE SWAP1 DUP2 ADD PUSH1 0x1F NOT AND DUP3 ADD PUSH1 0x40 MSTORE PUSH3 0x372 SWAP2 SWAP1 DUP2 ADD SWAP1 PUSH3 0xB8C JUMP JUMPDEST PUSH1 0x40 MLOAD PUSH4 0xC47F0027 PUSH1 0xE0 SHL DUP2 MSTORE SWAP1 SWAP2 POP PUSH1 0x1 PUSH1 0x1 PUSH1 0xA0 SHL SUB DUP5 AND SWAP1 PUSH4 0xC47F0027 SWAP1 PUSH3 0x3A5 SWAP1 DUP9 SWAP1 DUP9 SWAP1 PUSH1 0x4 ADD PUSH3 0xC3F JUMP JUMPDEST PUSH1 0x0 PUSH1 0x40 MLOAD DUP1 DUP4 SUB DUP2 PUSH1 0x0 DUP8 DUP1 EXTCODESIZE ISZERO DUP1 ISZERO PUSH3 0x3C0 JUMPI PUSH1 0x0 DUP1 REVERT JUMPDEST POP GAS CALL ISZERO DUP1 ISZERO PUSH3 0x3D5 JUMPI RETURNDATASIZE PUSH1 0x0 DUP1 RETURNDATACOPY RETURNDATASIZE PUSH1 0x0 REVERT JUMPDEST POP POP POP POP DUP3 PUSH1 0x1 PUSH1 0x1 PUSH1 0xA0 SHL SUB AND PUSH4 0x11523F4E DUP4 PUSH1 0xC0 ADD MLOAD DUP4 PUSH1 0xC0 ADD MLOAD PUSH1 0x1 SLOAD PUSH1 0x40 MLOAD DUP5 PUSH4 0xFFFFFFFF AND PUSH1 0xE0 SHL DUP2 MSTORE PUSH1 0x4 ADD PUSH3 0x415 SWAP4 SWAP3 SWAP2 SWAP1 PUSH3 0xC6E JUMP JUMPDEST PUSH1 0x0 PUSH1 0x40 MLOAD DUP1 DUP4 SUB DUP2 PUSH1 0x0 DUP8 DUP1 EXTCODESIZE ISZERO DUP1 ISZERO PUSH3 0x430 JUMPI PUSH1 0x0 DUP1 REVERT JUMPDEST POP GAS CALL ISZERO DUP1 ISZERO PUSH3 0x445 JUMPI RETURNDATASIZE PUSH1 0x0 DUP1 RETURNDATACOPY RETURNDATASIZE PUSH1 0x0 REVERT JUMPDEST POP POP POP POP DUP3 PUSH1 0x1 PUSH1 0x1 PUSH1 0xA0 SHL SUB AND PUSH4 0xAE8134E0 DUP4 PUSH1 0x80 ADD MLOAD DUP4 PUSH1 0x80 ADD MLOAD PUSH1 0x1 SLOAD PUSH1 0x40 MLOAD DUP5 PUSH4 0xFFFFFFFF AND PUSH1 0xE0 SHL DUP2 MSTORE PUSH1 0x4 ADD PUSH3 0x485 SWAP4 SWAP3 SWAP2 SWAP1 PUSH3 0xC6E JUMP JUMPDEST PUSH1 0x0 PUSH1 0x40 MLOAD DUP1 DUP4 SUB DUP2 PUSH1 0x0 DUP8 DUP1 EXTCODESIZE ISZERO DUP1 ISZERO PUSH3 0x4A0 JUMPI PUSH1 0x0 DUP1 REVERT JUMPDEST POP GAS CALL ISZERO DUP1 ISZERO PUSH3 0x4B5 JUMPI RETURNDATASIZE PUSH1 0x0 DUP1 RETURNDATACOPY RETURNDATASIZE PUSH1 0x0 REVERT JUMPDEST POP POP POP PUSH1 0x40 DUP1 DUP5 ADD MLOAD DUP4 DUP3 ADD MLOAD PUSH1 0x1 SLOAD SWAP3 MLOAD PUSH4 0x1053BCB3 PUSH1 0xE2 SHL DUP2 MSTORE PUSH1 0x1 PUSH1 0x1 PUSH1 0xA0 SHL SUB DUP9 AND SWAP5 POP PUSH4 0x414EF2CC SWAP4 PUSH3 0x4F3 SWAP4 SWAP3 SWAP2 PUSH1 0x4 ADD PUSH3 0xC6E JUMP JUMPDEST PUSH1 0x0 PUSH1 0x40 MLOAD DUP1 DUP4 SUB DUP2 PUSH1 0x0 DUP8 DUP1 EXTCODESIZE ISZERO DUP1 ISZERO PUSH3 0x50E JUMPI PUSH1 0x0 DUP1 REVERT JUMPDEST POP GAS CALL ISZERO DUP1 ISZERO PUSH3 0x523 JUMPI RETURNDATASIZE PUSH1 0x0 DUP1 RETURNDATACOPY RETURNDATASIZE PUSH1 0x0 REVERT JUMPDEST POP POP POP POP DUP3 PUSH1 0x1 PUSH1 0x1 PUSH1 0xA0 SHL SUB AND PUSH4 0x81E52E56 DUP4 PUSH1 0x60 ADD MLOAD DUP4 PUSH1 0x60 ADD MLOAD PUSH1 0x1 SLOAD PUSH1 0x40 MLOAD DUP5 PUSH4 0xFFFFFFFF AND PUSH1 0xE0 SHL DUP2 MSTORE PUSH1 0x4 ADD PUSH3 0x563 SWAP4 SWAP3 SWAP2 SWAP1 PUSH3 0xC6E JUMP JUMPDEST PUSH1 0x0 PUSH1 0x40 MLOAD DUP1 DUP4 SUB DUP2 PUSH1 0x0 DUP8 DUP1 EXTCODESIZE ISZERO DUP1 ISZERO PUSH3 0x57E JUMPI PUSH1 0x0 DUP1 REVERT JUMPDEST POP GAS CALL ISZERO DUP1 ISZERO PUSH3 0x593 JUMPI RETURNDATASIZE PUSH1 0x0 DUP1 RETURNDATACOPY RETURNDATASIZE PUSH1 0x0 REVERT JUMPDEST POP POP POP POP DUP3 PUSH1 0x1 PUSH1 0x1 PUSH1 0xA0 SHL SUB AND PUSH4 0xAED67FC DUP4 PUSH1 0xA0 ADD MLOAD DUP4 PUSH1 0xA0 ADD MLOAD PUSH1 0x1 SLOAD PUSH1 0x40 MLOAD DUP5 PUSH4 0xFFFFFFFF AND PUSH1 0xE0 SHL DUP2 MSTORE PUSH1 0x4 ADD PUSH3 0x5D3 SWAP4 SWAP3 SWAP2 SWAP1 PUSH3 0xC6E JUMP JUMPDEST PUSH1 0x0 PUSH1 0x40 MLOAD DUP1 DUP4 SUB DUP2 PUSH1 0x0 DUP8 DUP1 EXTCODESIZE ISZERO DUP1 ISZERO PUSH3 0x5EE JUMPI PUSH1 0x0 DUP1 REVERT JUMPDEST POP GAS CALL ISZERO DUP1 ISZERO PUSH3 0x603 JUMPI RETURNDATASIZE PUSH1 0x0 DUP1 RETURNDATACOPY RETURNDATASIZE PUSH1 0x0 REVERT JUMPDEST POP POP POP POP DUP3 PUSH1 0x1 PUSH1 0x1 PUSH1 0xA0 SHL SUB AND PUSH4 0x86134D2A DUP4 PUSH1 0x20 ADD MLOAD DUP4 PUSH1 0x20 ADD MLOAD PUSH1 0x1 SLOAD PUSH1 0x40 MLOAD DUP5 PUSH4 0xFFFFFFFF AND PUSH1 0xE0 SHL DUP2 MSTORE PUSH1 0x4 ADD PUSH3 0x643 SWAP4 SWAP3 SWAP2 SWAP1 PUSH3 0xC6E JUMP JUMPDEST PUSH1 0x0 PUSH1 0x40 MLOAD DUP1 DUP4 SUB DUP2 PUSH1 0x0 DUP8 DUP1 EXTCODESIZE ISZERO DUP1 ISZERO PUSH3 0x65E JUMPI PUSH1 0x0 DUP1 REVERT JUMPDEST POP GAS CALL ISZERO DUP1 ISZERO PUSH3 0x673 JUMPI RETURNDATASIZE PUSH1 0x0 DUP1 RETURNDATACOPY RETURNDATASIZE PUSH1 0x0 REVERT JUMPDEST POP POP PUSH1 0x0 DUP1 SLOAD PUSH1 0x1 DUP2 ADD DUP3 SSTORE SWAP1 DUP1 MSTORE PUSH1 0x0 DUP1 MLOAD PUSH1 0x20 PUSH3 0x2911 DUP4 CODECOPY DUP2 MLOAD SWAP2 MSTORE ADD DUP1 SLOAD PUSH1 0x1 PUSH1 0x1 PUSH1 0xA0 SHL SUB NOT AND PUSH1 0x1 PUSH1 0x1 PUSH1 0xA0 SHL SUB SWAP7 SWAP1 SWAP7 AND SWAP6 SWAP1 SWAP6 OR SWAP1 SWAP5 SSTORE POP POP POP POP POP POP POP POP JUMP JUMPDEST PUSH1 0x60 PUSH1 0x0 DUP1 SLOAD DUP1 PUSH1 0x20 MUL PUSH1 0x20 ADD PUSH1 0x40 MLOAD SWAP1 DUP2 ADD PUSH1 0x40 MSTORE DUP1 SWAP3 SWAP2 SWAP1 DUP2 DUP2 MSTORE PUSH1 0x20 ADD DUP3 DUP1 SLOAD DUP1 ISZERO PUSH3 0x716 JUMPI PUSH1 0x20 MUL DUP3 ADD SWAP2 SWAP1 PUSH1 0x0 MSTORE PUSH1 0x20 PUSH1 0x0 KECCAK256 SWAP1 JUMPDEST DUP2 SLOAD PUSH1 0x1 PUSH1 0x1 PUSH1 0xA0 SHL SUB AND DUP2 MSTORE PUSH1 0x1 SWAP1 SWAP2 ADD SWAP1 PUSH1 0x20 ADD DUP1 DUP4 GT PUSH3 0x6F7 JUMPI JUMPDEST POP POP POP POP POP SWAP1 POP SWAP1 JUMP JUMPDEST PUSH1 0x0 CALLER PUSH1 0x40 MLOAD PUSH3 0x731 SWAP1 PUSH3 0x900 JUMP JUMPDEST PUSH3 0x73D SWAP2 SWAP1 PUSH3 0x928 JUMP JUMPDEST PUSH1 0x40 MLOAD DUP1 SWAP2 SUB SWAP1 PUSH1 0x0 CREATE DUP1 ISZERO DUP1 ISZERO PUSH3 0x75A JUMPI RETURNDATASIZE PUSH1 0x0 DUP1 RETURNDATACOPY RETURNDATASIZE PUSH1 0x0 REVERT JUMPDEST POP CALLER PUSH1 0x0 SWAP1 DUP2 MSTORE PUSH1 0x2 PUSH1 0x20 MSTORE PUSH1 0x40 DUP2 KECCAK256 DUP1 SLOAD SWAP3 SWAP4 POP SWAP1 PUSH3 0x77B DUP4 PUSH3 0xA63 JUMP JUMPDEST SWAP1 SWAP2 SSTORE POP POP CALLER PUSH1 0x0 SWAP1 DUP2 MSTORE PUSH1 0x3 PUSH1 0x20 SWAP1 DUP2 MSTORE PUSH1 0x40 DUP3 KECCAK256 DUP1 SLOAD PUSH1 0x1 DUP2 ADD DUP3 SSTORE SWAP1 DUP4 MSTORE SWAP1 DUP3 KECCAK256 ADD DUP1 SLOAD PUSH1 0x1 PUSH1 0x1 PUSH1 0xA0 SHL SUB NOT AND PUSH1 0x1 PUSH1 0x1 PUSH1 0xA0 SHL SUB DUP5 AND OR SWAP1 SSTORE DUP3 SWAP1 SUB PUSH3 0x824 JUMPI PUSH1 0x40 MLOAD PUSH4 0x706D35B3 PUSH1 0xE1 SHL DUP2 MSTORE PUSH1 0x0 PUSH1 0x4 DUP3 ADD MSTORE PUSH1 0x1 PUSH1 0x1 PUSH1 0xA0 SHL SUB DUP3 AND SWAP1 PUSH4 0xE0DA6B66 SWAP1 PUSH1 0x24 ADD JUMPDEST PUSH1 0x0 PUSH1 0x40 MLOAD DUP1 DUP4 SUB DUP2 PUSH1 0x0 DUP8 DUP1 EXTCODESIZE ISZERO DUP1 ISZERO PUSH3 0x805 JUMPI PUSH1 0x0 DUP1 REVERT JUMPDEST POP GAS CALL ISZERO DUP1 ISZERO PUSH3 0x81A JUMPI RETURNDATASIZE PUSH1 0x0 DUP1 RETURNDATACOPY RETURNDATASIZE PUSH1 0x0 REVERT JUMPDEST POP POP POP POP PUSH3 0x8C1 JUMP JUMPDEST DUP2 PUSH1 0x1 SUB PUSH3 0x85B JUMPI PUSH1 0x40 MLOAD PUSH4 0x706D35B3 PUSH1 0xE1 SHL DUP2 MSTORE PUSH1 0x1 PUSH1 0x4 DUP3 ADD MSTORE PUSH1 0x1 PUSH1 0x1 PUSH1 0xA0 SHL SUB DUP3 AND SWAP1 PUSH4 0xE0DA6B66 SWAP1 PUSH1 0x24 ADD PUSH3 0x7EA JUMP JUMPDEST DUP2 PUSH1 0x2 SUB PUSH3 0x8C1 JUMPI PUSH1 0x40 MLOAD PUSH4 0x706D35B3 PUSH1 0xE1 SHL DUP2 MSTORE PUSH1 0x2 PUSH1 0x4 DUP3 ADD MSTORE PUSH1 0x1 PUSH1 0x1 PUSH1 0xA0 SHL SUB DUP3 AND SWAP1 PUSH4 0xE0DA6B66 SWAP1 PUSH1 0x24 ADD PUSH1 0x0 PUSH1 0x40 MLOAD DUP1 DUP4 SUB DUP2 PUSH1 0x0 DUP8 DUP1 EXTCODESIZE ISZERO DUP1 ISZERO PUSH3 0x8A7 JUMPI PUSH1 0x0 DUP1 REVERT JUMPDEST POP GAS CALL ISZERO DUP1 ISZERO PUSH3 0x8BC JUMPI RETURNDATASIZE PUSH1 0x0 DUP1 RETURNDATACOPY RETURNDATASIZE PUSH1 0x0 REVERT JUMPDEST POP POP POP POP JUMPDEST PUSH1 0x0 DUP1 SLOAD PUSH1 0x1 DUP2 ADD DUP3 SSTORE SWAP1 DUP1 MSTORE PUSH1 0x0 DUP1 MLOAD PUSH1 0x20 PUSH3 0x2911 DUP4 CODECOPY DUP2 MLOAD SWAP2 MSTORE ADD DUP1 SLOAD PUSH1 0x1 PUSH1 0x1 PUSH1 0xA0 SHL SUB NOT AND PUSH1 0x1 PUSH1 0x1 PUSH1 0xA0 SHL SUB SWAP3 SWAP1 SWAP3 AND SWAP2 SWAP1 SWAP2 OR SWAP1 SSTORE POP JUMP JUMPDEST PUSH2 0x1C8C DUP1 PUSH3 0xC85 DUP4 CODECOPY ADD SWAP1 JUMP JUMPDEST PUSH1 0x0 PUSH1 0x20 DUP3 DUP5 SUB SLT ISZERO PUSH3 0x921 JUMPI PUSH1 0x0 DUP1 REVERT JUMPDEST POP CALLDATALOAD SWAP2 SWAP1 POP JUMP JUMPDEST PUSH1 0x1 PUSH1 0x1 PUSH1 0xA0 SHL SUB SWAP2 SWAP1 SWAP2 AND DUP2 MSTORE PUSH1 0x20 ADD SWAP1 JUMP JUMPDEST DUP1 CALLDATALOAD PUSH1 0x1 PUSH1 0x1 PUSH1 0xA0 SHL SUB DUP2 AND DUP2 EQ PUSH3 0x954 JUMPI PUSH1 0x0 DUP1 REVERT JUMPDEST SWAP2 SWAP1 POP JUMP JUMPDEST PUSH1 0x0 PUSH1 0x20 DUP3 DUP5 SUB SLT ISZERO PUSH3 0x96C JUMPI PUSH1 0x0 DUP1 REVERT JUMPDEST PUSH3 0x977 DUP3 PUSH3 0x93C JUMP JUMPDEST SWAP4 SWAP3 POP POP POP JUMP JUMPDEST PUSH1 0x20 DUP1 DUP3 MSTORE DUP3 MLOAD DUP3 DUP3 ADD DUP2 SWAP1 MSTORE PUSH1 0x0 SWAP2 SWAP1 DUP5 DUP3 ADD SWAP1 PUSH1 0x40 DUP6 ADD SWAP1 DUP5 JUMPDEST DUP2 DUP2 LT ISZERO PUSH3 0x9C1 JUMPI DUP4 MLOAD PUSH1 0x1 PUSH1 0x1 PUSH1 0xA0 SHL SUB AND DUP4 MSTORE SWAP3 DUP5 ADD SWAP3 SWAP2 DUP5 ADD SWAP2 PUSH1 0x1 ADD PUSH3 0x99A JUMP JUMPDEST POP SWAP1 SWAP7 SWAP6 POP POP POP POP POP POP JUMP JUMPDEST PUSH1 0x0 DUP1 PUSH1 0x0 DUP1 PUSH1 0x60 DUP6 DUP8 SUB SLT ISZERO PUSH3 0x9E4 JUMPI PUSH1 0x0 DUP1 REVERT JUMPDEST PUSH3 0x9EF DUP6 PUSH3 0x93C JUMP JUMPDEST SWAP4 POP PUSH3 0x9FF PUSH1 0x20 DUP7 ADD PUSH3 0x93C JUMP JUMPDEST SWAP3 POP PUSH1 0x40 DUP6 ADD CALLDATALOAD PUSH1 0x1 PUSH1 0x1 PUSH1 0x40 SHL SUB DUP1 DUP3 GT ISZERO PUSH3 0xA1C JUMPI PUSH1 0x0 DUP1 REVERT JUMPDEST DUP2 DUP8 ADD SWAP2 POP DUP8 PUSH1 0x1F DUP4 ADD SLT PUSH3 0xA31 JUMPI PUSH1 0x0 DUP1 REVERT JUMPDEST DUP2 CALLDATALOAD DUP2 DUP2 GT ISZERO PUSH3 0xA41 JUMPI PUSH1 0x0 DUP1 REVERT JUMPDEST DUP9 PUSH1 0x20 DUP3 DUP6 ADD ADD GT ISZERO PUSH3 0xA54 JUMPI PUSH1 0x0 DUP1 REVERT JUMPDEST SWAP6 SWAP9 SWAP5 SWAP8 POP POP PUSH1 0x20 ADD SWAP5 POP POP POP JUMP JUMPDEST PUSH1 0x0 PUSH1 0x1 DUP3 ADD PUSH3 0xA84 JUMPI PUSH4 0x4E487B71 PUSH1 0xE0 SHL PUSH1 0x0 MSTORE PUSH1 0x11 PUSH1 0x4 MSTORE PUSH1 0x24 PUSH1 0x0 REVERT JUMPDEST POP PUSH1 0x1 ADD SWAP1 JUMP JUMPDEST PUSH4 0x4E487B71 PUSH1 0xE0 SHL PUSH1 0x0 MSTORE PUSH1 0x41 PUSH1 0x4 MSTORE PUSH1 0x24 PUSH1 0x0 REVERT JUMPDEST PUSH1 0x40 MLOAD PUSH1 0xE0 DUP2 ADD PUSH1 0x1 PUSH1 0x1 PUSH1 0x40 SHL SUB DUP2 GT DUP3 DUP3 LT OR ISZERO PUSH3 0xAC6 JUMPI PUSH3 0xAC6 PUSH3 0xA8B JUMP JUMPDEST PUSH1 0x40 MSTORE SWAP1 JUMP JUMPDEST PUSH1 0x40 MLOAD PUSH1 0x1F DUP3 ADD PUSH1 0x1F NOT AND DUP2 ADD PUSH1 0x1 PUSH1 0x1 PUSH1 0x40 SHL SUB DUP2 GT DUP3 DUP3 LT OR ISZERO PUSH3 0xAF7 JUMPI PUSH3 0xAF7 PUSH3 0xA8B JUMP JUMPDEST PUSH1 0x40 MSTORE SWAP2 SWAP1 POP JUMP JUMPDEST PUSH1 0x0 DUP3 PUSH1 0x1F DUP4 ADD SLT PUSH3 0xB11 JUMPI PUSH1 0x0 DUP1 REVERT JUMPDEST DUP2 MLOAD PUSH1 0x1 PUSH1 0x1 PUSH1 0x40 SHL SUB DUP2 GT ISZERO PUSH3 0xB2D JUMPI PUSH3 0xB2D PUSH3 0xA8B JUMP JUMPDEST PUSH1 0x20 PUSH3 0xB43 PUSH1 0x1F DUP4 ADD PUSH1 0x1F NOT AND DUP3 ADD PUSH3 0xACC JUMP JUMPDEST DUP3 DUP2 MSTORE DUP6 DUP3 DUP5 DUP8 ADD ADD GT ISZERO PUSH3 0xB58 JUMPI PUSH1 0x0 DUP1 REVERT JUMPDEST PUSH1 0x0 JUMPDEST DUP4 DUP2 LT ISZERO PUSH3 0xB78 JUMPI DUP6 DUP2 ADD DUP4 ADD MLOAD DUP3 DUP3 ADD DUP5 ADD MSTORE DUP3 ADD PUSH3 0xB5B JUMP JUMPDEST POP PUSH1 0x0 SWAP3 DUP2 ADD SWAP1 SWAP2 ADD SWAP2 SWAP1 SWAP2 MSTORE SWAP4 SWAP3 POP POP POP JUMP JUMPDEST PUSH1 0x0 PUSH1 0x20 DUP3 DUP5 SUB SLT ISZERO PUSH3 0xB9F JUMPI PUSH1 0x0 DUP1 REVERT JUMPDEST DUP2 MLOAD PUSH1 0x1 PUSH1 0x1 PUSH1 0x40 SHL SUB DUP1 DUP3 GT ISZERO PUSH3 0xBB7 JUMPI PUSH1 0x0 DUP1 REVERT JUMPDEST SWAP1 DUP4 ADD SWAP1 PUSH1 0xE0 DUP3 DUP7 SUB SLT ISZERO PUSH3 0xBCC JUMPI PUSH1 0x0 DUP1 REVERT JUMPDEST PUSH3 0xBD6 PUSH3 0xAA1 JUMP JUMPDEST DUP3 MLOAD DUP3 DUP2 GT ISZERO PUSH3 0xBE6 JUMPI PUSH1 0x0 DUP1 REVERT JUMPDEST PUSH3 0xBF4 DUP8 DUP3 DUP7 ADD PUSH3 0xAFF JUMP JUMPDEST DUP3 MSTORE POP PUSH1 0x20 DUP4 ADD MLOAD PUSH1 0x20 DUP3 ADD MSTORE PUSH1 0x40 DUP4 ADD MLOAD PUSH1 0x40 DUP3 ADD MSTORE PUSH1 0x60 DUP4 ADD MLOAD PUSH1 0x60 DUP3 ADD MSTORE PUSH1 0x80 DUP4 ADD MLOAD PUSH1 0x80 DUP3 ADD MSTORE PUSH1 0xA0 DUP4 ADD MLOAD PUSH1 0xA0 DUP3 ADD MSTORE PUSH1 0xC0 DUP4 ADD MLOAD PUSH1 0xC0 DUP3 ADD MSTORE DUP1 SWAP4 POP POP POP POP SWAP3 SWAP2 POP POP JUMP JUMPDEST PUSH1 0x20 DUP2 MSTORE DUP2 PUSH1 0x20 DUP3 ADD MSTORE DUP2 DUP4 PUSH1 0x40 DUP4 ADD CALLDATACOPY PUSH1 0x0 DUP2 DUP4 ADD PUSH1 0x40 SWAP1 DUP2 ADD SWAP2 SWAP1 SWAP2 MSTORE PUSH1 0x1F SWAP1 SWAP3 ADD PUSH1 0x1F NOT AND ADD ADD SWAP2 SWAP1 POP JUMP JUMPDEST SWAP3 DUP4 MSTORE PUSH1 0x20 DUP4 ADD SWAP2 SWAP1 SWAP2 MSTORE PUSH1 0x40 DUP3 ADD MSTORE PUSH1 0x60 ADD SWAP1 JUMP INVALID PUSH1 0x80 PUSH1 0x40 MSTORE CALLVALUE DUP1 ISZERO PUSH3 0x11 JUMPI PUSH1 0x0 DUP1 REVERT JUMPDEST POP PUSH1 0x40 MLOAD PUSH3 0x1C8C CODESIZE SUB DUP1 PUSH3 0x1C8C DUP4 CODECOPY DUP2 ADD PUSH1 0x40 DUP2 SWAP1 MSTORE PUSH3 0x34 SWAP2 PUSH3 0x13A JUMP JUMPDEST DUP1 PUSH1 0x40 MLOAD DUP1 PUSH1 0x40 ADD PUSH1 0x40 MSTORE DUP1 PUSH1 0x6 DUP2 MSTORE PUSH1 0x20 ADD PUSH6 0x27232A26B7B7 PUSH1 0xD1 SHL DUP2 MSTORE POP PUSH1 0x40 MLOAD DUP1 PUSH1 0x40 ADD PUSH1 0x40 MSTORE DUP1 PUSH1 0x4 DUP2 MSTORE PUSH1 0x20 ADD PUSH4 0x4E46544D PUSH1 0xE0 SHL DUP2 MSTORE POP DUP2 PUSH1 0x0 SWAP1 DUP2 PUSH3 0x82 SWAP2 SWAP1 PUSH3 0x211 JUMP JUMPDEST POP PUSH1 0x1 PUSH3 0x91 DUP3 DUP3 PUSH3 0x211 JUMP JUMPDEST POP POP PUSH1 0x6 DUP1 SLOAD PUSH1 0xFF NOT AND SWAP1 SSTORE POP PUSH1 0x1 PUSH1 0x1 PUSH1 0xA0 SHL SUB DUP2 AND PUSH3 0xCD JUMPI PUSH1 0x40 MLOAD PUSH4 0x1E4FBDF7 PUSH1 0xE0 SHL DUP2 MSTORE PUSH1 0x0 PUSH1 0x4 DUP3 ADD MSTORE PUSH1 0x24 ADD PUSH1 0x40 MLOAD DUP1 SWAP2 SUB SWAP1 REVERT JUMPDEST PUSH3 0xD8 DUP2 PUSH3 0xE0 JUMP JUMPDEST POP POP PUSH3 0x2DD JUMP JUMPDEST PUSH1 0x6 DUP1 SLOAD PUSH1 0x1 PUSH1 0x1 PUSH1 0xA0 SHL SUB DUP4 DUP2 AND PUSH2 0x100 DUP2 DUP2 MUL PUSH2 0x100 PUSH1 0x1 PUSH1 0xA8 SHL SUB NOT DUP6 AND OR SWAP1 SWAP5 SSTORE PUSH1 0x40 MLOAD SWAP4 SWAP1 SWAP3 DIV AND SWAP2 DUP3 SWAP1 PUSH32 0x8BE0079C531659141344CD1FD0A4F28419497F9722A3DAAFE3B4186F6B6457E0 SWAP1 PUSH1 0x0 SWAP1 LOG3 POP POP JUMP JUMPDEST PUSH1 0x0 PUSH1 0x20 DUP3 DUP5 SUB SLT ISZERO PUSH3 0x14D JUMPI PUSH1 0x0 DUP1 REVERT JUMPDEST DUP2 MLOAD PUSH1 0x1 PUSH1 0x1 PUSH1 0xA0 SHL SUB DUP2 AND DUP2 EQ PUSH3 0x165 JUMPI PUSH1 0x0 DUP1 REVERT JUMPDEST SWAP4 SWAP3 POP POP POP JUMP JUMPDEST PUSH4 0x4E487B71 PUSH1 0xE0 SHL PUSH1 0x0 MSTORE PUSH1 0x41 PUSH1 0x4 MSTORE PUSH1 0x24 PUSH1 0x0 REVERT JUMPDEST PUSH1 0x1 DUP2 DUP2 SHR SWAP1 DUP3 AND DUP1 PUSH3 0x197 JUMPI PUSH1 0x7F DUP3 AND SWAP2 POP JUMPDEST PUSH1 0x20 DUP3 LT DUP2 SUB PUSH3 0x1B8 JUMPI PUSH4 0x4E487B71 PUSH1 0xE0 SHL PUSH1 0x0 MSTORE PUSH1 0x22 PUSH1 0x4 MSTORE PUSH1 0x24 PUSH1 0x0 REVERT JUMPDEST POP SWAP2 SWAP1 POP JUMP JUMPDEST PUSH1 0x1F DUP3 GT ISZERO PUSH3 0x20C JUMPI PUSH1 0x0 DUP2 DUP2 MSTORE PUSH1 0x20 DUP2 KECCAK256 PUSH1 0x1F DUP6 ADD PUSH1 0x5 SHR DUP2 ADD PUSH1 0x20 DUP7 LT ISZERO PUSH3 0x1E7 JUMPI POP DUP1 JUMPDEST PUSH1 0x1F DUP6 ADD PUSH1 0x5 SHR DUP3 ADD SWAP2 POP JUMPDEST DUP2 DUP2 LT ISZERO PUSH3 0x208 JUMPI DUP3 DUP2 SSTORE PUSH1 0x1 ADD PUSH3 0x1F3 JUMP JUMPDEST POP POP POP JUMPDEST POP POP POP JUMP JUMPDEST DUP2 MLOAD PUSH1 0x1 PUSH1 0x1 PUSH1 0x40 SHL SUB DUP2 GT ISZERO PUSH3 0x22D JUMPI PUSH3 0x22D PUSH3 0x16C JUMP JUMPDEST PUSH3 0x245 DUP2 PUSH3 0x23E DUP5 SLOAD PUSH3 0x182 JUMP JUMPDEST DUP5 PUSH3 0x1BE JUMP JUMPDEST PUSH1 0x20 DUP1 PUSH1 0x1F DUP4 GT PUSH1 0x1 DUP2 EQ PUSH3 0x27D JUMPI PUSH1 0x0 DUP5 ISZERO PUSH3 0x264 JUMPI POP DUP6 DUP4 ADD MLOAD JUMPDEST PUSH1 0x0 NOT PUSH1 0x3 DUP7 SWAP1 SHL SHR NOT AND PUSH1 0x1 DUP6 SWAP1 SHL OR DUP6 SSTORE PUSH3 0x208 JUMP JUMPDEST PUSH1 0x0 DUP6 DUP2 MSTORE PUSH1 0x20 DUP2 KECCAK256 PUSH1 0x1F NOT DUP7 AND SWAP2 JUMPDEST DUP3 DUP2 LT ISZERO PUSH3 0x2AE JUMPI DUP9 DUP7 ADD MLOAD DUP3 SSTORE SWAP5 DUP5 ADD SWAP5 PUSH1 0x1 SWAP1 SWAP2 ADD SWAP1 DUP5 ADD PUSH3 0x28D JUMP JUMPDEST POP DUP6 DUP3 LT ISZERO PUSH3 0x2CD JUMPI DUP8 DUP6 ADD MLOAD PUSH1 0x0 NOT PUSH1 0x3 DUP9 SWAP1 SHL PUSH1 0xF8 AND SHR NOT AND DUP2 SSTORE JUMPDEST POP POP POP POP POP PUSH1 0x1 SWAP1 DUP2 SHL ADD SWAP1 SSTORE POP JUMP JUMPDEST PUSH2 0x199F DUP1 PUSH3 0x2ED PUSH1 0x0 CODECOPY PUSH1 0x0 RETURN INVALID PUSH1 0x80 PUSH1 0x40 MSTORE CALLVALUE DUP1 ISZERO PUSH2 0x10 JUMPI PUSH1 0x0 DUP1 REVERT JUMPDEST POP PUSH1 0x4 CALLDATASIZE LT PUSH2 0x18B JUMPI PUSH1 0x0 CALLDATALOAD PUSH1 0xE0 SHR DUP1 PUSH4 0x1FFC9A7 EQ PUSH2 0x190 JUMPI DUP1 PUSH4 0x6FDDE03 EQ PUSH2 0x1B8 JUMPI DUP1 PUSH4 0x81812FC EQ PUSH2 0x1CD JUMPI DUP1 PUSH4 0x95EA7B3 EQ PUSH2 0x1ED JUMPI DUP1 PUSH4 0xAED67FC EQ PUSH2 0x202 JUMPI DUP1 PUSH4 0x11523F4E EQ PUSH2 0x215 JUMPI DUP1 PUSH4 0x19F6DEC2 EQ PUSH2 0x228 JUMPI DUP1 PUSH4 0x23B872DD EQ PUSH2 0x23D JUMPI DUP1 PUSH4 0x3F4BA83A EQ PUSH2 0x250 JUMPI DUP1 PUSH4 0x414EF2CC EQ PUSH2 0x202 JUMPI DUP1 PUSH4 0x42842E0E EQ PUSH2 0x258 JUMPI DUP1 PUSH4 0x42966C68 EQ PUSH2 0x26B JUMPI DUP1 PUSH4 0x5C975ABB EQ PUSH2 0x27E JUMPI DUP1 PUSH4 0x6352211E EQ PUSH2 0x289 JUMPI DUP1 PUSH4 0x70A08231 EQ PUSH2 0x29C JUMPI DUP1 PUSH4 0x715018A6 EQ PUSH2 0x2BD JUMPI DUP1 PUSH4 0x7D9A94F3 EQ PUSH2 0x2C5 JUMPI DUP1 PUSH4 0x81E52E56 EQ PUSH2 0x202 JUMPI DUP1 PUSH4 0x8456CB59 EQ PUSH2 0x2D8 JUMPI DUP1 PUSH4 0x86134D2A EQ PUSH2 0x202 JUMPI DUP1 PUSH4 0x8DA5CB5B EQ PUSH2 0x2E0 JUMPI DUP1 PUSH4 0x8E871B07 EQ PUSH2 0x2E8 JUMPI DUP1 PUSH4 0x95D89B41 EQ PUSH2 0x2F6 JUMPI DUP1 PUSH4 0xA1448194 EQ PUSH2 0x2FE JUMPI DUP1 PUSH4 0xA22CB465 EQ PUSH2 0x311 JUMPI DUP1 PUSH4 0xAA3EC0A9 EQ PUSH2 0x324 JUMPI DUP1 PUSH4 0xAE8134E0 EQ PUSH2 0x32D JUMPI DUP1 PUSH4 0xB88D4FDE EQ PUSH2 0x340 JUMPI DUP1 PUSH4 0xC47F0027 EQ PUSH2 0x353 JUMPI DUP1 PUSH4 0xC87B56DD EQ PUSH2 0x366 JUMPI DUP1 PUSH4 0xE0DA6B66 EQ PUSH2 0x379 JUMPI DUP1 PUSH4 0xE985E9C5 EQ PUSH2 0x38C JUMPI DUP1 PUSH4 0xF2FDE38B EQ PUSH2 0x39F JUMPI JUMPDEST PUSH1 0x0 DUP1 REVERT JUMPDEST PUSH2 0x1A3 PUSH2 0x19E CALLDATASIZE PUSH1 0x4 PUSH2 0x1357 JUMP JUMPDEST PUSH2 0x3B2 JUMP JUMPDEST PUSH1 0x40 MLOAD SWAP1 ISZERO ISZERO DUP2 MSTORE PUSH1 0x20 ADD JUMPDEST PUSH1 0x40 MLOAD DUP1 SWAP2 SUB SWAP1 RETURN JUMPDEST PUSH2 0x1C0 PUSH2 0x404 JUMP JUMPDEST PUSH1 0x40 MLOAD PUSH2 0x1AF SWAP2 SWAP1 PUSH2 0x13C4 JUMP JUMPDEST PUSH2 0x1E0 PUSH2 0x1DB CALLDATASIZE PUSH1 0x4 PUSH2 0x13D7 JUMP JUMPDEST PUSH2 0x496 JUMP JUMPDEST PUSH1 0x40 MLOAD PUSH2 0x1AF SWAP2 SWAP1 PUSH2 0x13F0 JUMP JUMPDEST PUSH2 0x200 PUSH2 0x1FB CALLDATASIZE PUSH1 0x4 PUSH2 0x1420 JUMP JUMPDEST PUSH2 0x4AB JUMP JUMPDEST STOP JUMPDEST PUSH2 0x200 PUSH2 0x210 CALLDATASIZE PUSH1 0x4 PUSH2 0x144A JUMP JUMPDEST PUSH2 0x4BA JUMP JUMPDEST PUSH2 0x200 PUSH2 0x223 CALLDATASIZE PUSH1 0x4 PUSH2 0x144A JUMP JUMPDEST PUSH2 0x527 JUMP JUMPDEST PUSH2 0x230 PUSH2 0x54A JUMP JUMPDEST PUSH1 0x40 MLOAD PUSH2 0x1AF SWAP2 SWAP1 PUSH2 0x1476 JUMP JUMPDEST PUSH2 0x200 PUSH2 0x24B CALLDATASIZE PUSH1 0x4 PUSH2 0x14DB JUMP JUMPDEST PUSH2 0x66A JUMP JUMPDEST PUSH2 0x200 PUSH2 0x6FE JUMP JUMPDEST PUSH2 0x200 PUSH2 0x266 CALLDATASIZE PUSH1 0x4 PUSH2 0x14DB JUMP JUMPDEST PUSH2 0x710 JUMP JUMPDEST PUSH2 0x200 PUSH2 0x279 CALLDATASIZE PUSH1 0x4 PUSH2 0x13D7 JUMP JUMPDEST PUSH2 0x730 JUMP JUMPDEST PUSH1 0x6 SLOAD PUSH1 0xFF AND PUSH2 0x1A3 JUMP JUMPDEST PUSH2 0x1E0 PUSH2 0x297 CALLDATASIZE PUSH1 0x4 PUSH2 0x13D7 JUMP JUMPDEST PUSH2 0x73C JUMP JUMPDEST PUSH2 0x2AF PUSH2 0x2AA CALLDATASIZE PUSH1 0x4 PUSH2 0x1517 JUMP JUMPDEST PUSH2 0x747 JUMP JUMPDEST PUSH1 0x40 MLOAD SWAP1 DUP2 MSTORE PUSH1 0x20 ADD PUSH2 0x1AF JUMP JUMPDEST PUSH2 0x200 PUSH2 0x78F JUMP JUMPDEST PUSH2 0x200 PUSH2 0x2D3 CALLDATASIZE PUSH1 0x4 PUSH2 0x13D7 JUMP JUMPDEST PUSH1 0x7 SSTORE JUMP JUMPDEST PUSH2 0x200 PUSH2 0x7A1 JUMP JUMPDEST PUSH2 0x1E0 PUSH2 0x7B1 JUMP JUMPDEST PUSH2 0x2AF PUSH1 0x1 PUSH1 0x1 PUSH1 0xFF SHL SUB DUP2 JUMP JUMPDEST PUSH2 0x1C0 PUSH2 0x7C5 JUMP JUMPDEST PUSH2 0x200 PUSH2 0x30C CALLDATASIZE PUSH1 0x4 PUSH2 0x1420 JUMP JUMPDEST PUSH2 0x7D4 JUMP JUMPDEST PUSH2 0x200 PUSH2 0x31F CALLDATASIZE PUSH1 0x4 PUSH2 0x1532 JUMP JUMPDEST PUSH2 0x7E6 JUMP JUMPDEST PUSH2 0x2AF PUSH1 0x7 SLOAD DUP2 JUMP JUMPDEST PUSH2 0x200 PUSH2 0x33B CALLDATASIZE PUSH1 0x4 PUSH2 0x144A JUMP JUMPDEST PUSH2 0x7F1 JUMP JUMPDEST PUSH2 0x200 PUSH2 0x34E CALLDATASIZE PUSH1 0x4 PUSH2 0x15F9 JUMP JUMPDEST PUSH2 0x85E JUMP JUMPDEST PUSH2 0x200 PUSH2 0x361 CALLDATASIZE PUSH1 0x4 PUSH2 0x1674 JUMP JUMPDEST PUSH2 0x875 JUMP JUMPDEST PUSH2 0x1C0 PUSH2 0x374 CALLDATASIZE PUSH1 0x4 PUSH2 0x13D7 JUMP JUMPDEST PUSH2 0x881 JUMP JUMPDEST PUSH2 0x200 PUSH2 0x387 CALLDATASIZE PUSH1 0x4 PUSH2 0x13D7 JUMP JUMPDEST PUSH2 0x915 JUMP JUMPDEST PUSH2 0x1A3 PUSH2 0x39A CALLDATASIZE PUSH1 0x4 PUSH2 0x16BC JUMP JUMPDEST PUSH2 0xAAB JUMP JUMPDEST PUSH2 0x200 PUSH2 0x3AD CALLDATASIZE PUSH1 0x4 PUSH2 0x1517 JUMP JUMPDEST PUSH2 0xAD9 JUMP JUMPDEST PUSH1 0x0 PUSH1 0x1 PUSH1 0x1 PUSH1 0xE0 SHL SUB NOT DUP3 AND PUSH4 0x80AC58CD PUSH1 0xE0 SHL EQ DUP1 PUSH2 0x3E3 JUMPI POP PUSH1 0x1 PUSH1 0x1 PUSH1 0xE0 SHL SUB NOT DUP3 AND PUSH4 0x5B5E139F PUSH1 0xE0 SHL EQ JUMPDEST DUP1 PUSH2 0x3FE JUMPI POP PUSH4 0x1FFC9A7 PUSH1 0xE0 SHL PUSH1 0x1 PUSH1 0x1 PUSH1 0xE0 SHL SUB NOT DUP4 AND EQ JUMPDEST SWAP3 SWAP2 POP POP JUMP JUMPDEST PUSH1 0x60 PUSH1 0x0 DUP1 SLOAD PUSH2 0x413 SWAP1 PUSH2 0x16EF JUMP JUMPDEST DUP1 PUSH1 0x1F ADD PUSH1 0x20 DUP1 SWAP2 DIV MUL PUSH1 0x20 ADD PUSH1 0x40 MLOAD SWAP1 DUP2 ADD PUSH1 0x40 MSTORE DUP1 SWAP3 SWAP2 SWAP1 DUP2 DUP2 MSTORE PUSH1 0x20 ADD DUP3 DUP1 SLOAD PUSH2 0x43F SWAP1 PUSH2 0x16EF JUMP JUMPDEST DUP1 ISZERO PUSH2 0x48C JUMPI DUP1 PUSH1 0x1F LT PUSH2 0x461 JUMPI PUSH2 0x100 DUP1 DUP4 SLOAD DIV MUL DUP4 MSTORE SWAP2 PUSH1 0x20 ADD SWAP2 PUSH2 0x48C JUMP JUMPDEST DUP3 ADD SWAP2 SWAP1 PUSH1 0x0 MSTORE PUSH1 0x20 PUSH1 0x0 KECCAK256 SWAP1 JUMPDEST DUP2 SLOAD DUP2 MSTORE SWAP1 PUSH1 0x1 ADD SWAP1 PUSH1 0x20 ADD DUP1 DUP4 GT PUSH2 0x46F JUMPI DUP3 SWAP1 SUB PUSH1 0x1F AND DUP3 ADD SWAP2 JUMPDEST POP POP POP POP POP SWAP1 POP SWAP1 JUMP JUMPDEST PUSH1 0x0 PUSH2 0x4A1 DUP3 PUSH2 0xB14 JUMP JUMPDEST POP PUSH2 0x3FE DUP3 PUSH2 0xB4C JUMP JUMPDEST PUSH2 0x4B6 DUP3 DUP3 CALLER PUSH2 0xB67 JUMP JUMPDEST POP POP JUMP JUMPDEST PUSH1 0x0 PUSH1 0x1 PUSH1 0x1 PUSH1 0xFF SHL SUB DUP3 GT ISZERO PUSH2 0x4D4 JUMPI POP PUSH2 0x1D4C PUSH2 0x4D9 JUMP JUMPDEST POP PUSH2 0x9C4 JUMPDEST PUSH1 0x0 PUSH2 0x2710 PUSH2 0x4E8 DUP4 DUP3 PUSH2 0x173F JUMP JUMPDEST PUSH2 0x4F2 SWAP1 DUP7 PUSH2 0x1752 JUMP JUMPDEST PUSH2 0x4FC SWAP2 SWAP1 PUSH2 0x1769 JUMP JUMPDEST PUSH2 0x2710 PUSH2 0x509 DUP5 DUP9 PUSH2 0x1752 JUMP JUMPDEST PUSH2 0x513 SWAP2 SWAP1 PUSH2 0x1769 JUMP JUMPDEST PUSH2 0x51D SWAP2 SWAP1 PUSH2 0x178B JUMP JUMPDEST PUSH1 0x9 SSTORE POP POP POP POP POP JUMP JUMPDEST PUSH1 0x0 PUSH1 0x1 PUSH1 0x1 PUSH1 0xFF SHL SUB DUP3 GT ISZERO PUSH2 0x53F JUMPI POP DUP3 PUSH2 0x542 JUMP JUMPDEST POP DUP2 JUMPDEST PUSH1 0xE SSTORE POP POP POP JUMP JUMPDEST PUSH2 0x58A PUSH1 0x40 MLOAD DUP1 PUSH1 0xE0 ADD PUSH1 0x40 MSTORE DUP1 PUSH1 0x60 DUP2 MSTORE PUSH1 0x20 ADD PUSH1 0x0 DUP2 MSTORE PUSH1 0x20 ADD PUSH1 0x0 DUP2 MSTORE PUSH1 0x20 ADD PUSH1 0x0 DUP2 MSTORE PUSH1 0x20 ADD PUSH1 0x0 DUP2 MSTORE PUSH1 0x20 ADD PUSH1 0x0 DUP2 MSTORE PUSH1 0x20 ADD PUSH1 0x0 DUP2 MSTORE POP SWAP1 JUMP JUMPDEST PUSH1 0x8 PUSH1 0x40 MLOAD DUP1 PUSH1 0xE0 ADD PUSH1 0x40 MSTORE SWAP1 DUP2 PUSH1 0x0 DUP3 ADD DUP1 SLOAD PUSH2 0x5A7 SWAP1 PUSH2 0x16EF JUMP JUMPDEST DUP1 PUSH1 0x1F ADD PUSH1 0x20 DUP1 SWAP2 DIV MUL PUSH1 0x20 ADD PUSH1 0x40 MLOAD SWAP1 DUP2 ADD PUSH1 0x40 MSTORE DUP1 SWAP3 SWAP2 SWAP1 DUP2 DUP2 MSTORE PUSH1 0x20 ADD DUP3 DUP1 SLOAD PUSH2 0x5D3 SWAP1 PUSH2 0x16EF JUMP JUMPDEST DUP1 ISZERO PUSH2 0x620 JUMPI DUP1 PUSH1 0x1F LT PUSH2 0x5F5 JUMPI PUSH2 0x100 DUP1 DUP4 SLOAD DIV MUL DUP4 MSTORE SWAP2 PUSH1 0x20 ADD SWAP2 PUSH2 0x620 JUMP JUMPDEST DUP3 ADD SWAP2 SWAP1 PUSH1 0x0 MSTORE PUSH1 0x20 PUSH1 0x0 KECCAK256 SWAP1 JUMPDEST DUP2 SLOAD DUP2 MSTORE SWAP1 PUSH1 0x1 ADD SWAP1 PUSH1 0x20 ADD DUP1 DUP4 GT PUSH2 0x603 JUMPI DUP3 SWAP1 SUB PUSH1 0x1F AND DUP3 ADD SWAP2 JUMPDEST POP POP POP POP POP DUP2 MSTORE PUSH1 0x20 ADD PUSH1 0x1 DUP3 ADD SLOAD DUP2 MSTORE PUSH1 0x20 ADD PUSH1 0x2 DUP3 ADD SLOAD DUP2 MSTORE PUSH1 0x20 ADD PUSH1 0x3 DUP3 ADD SLOAD DUP2 MSTORE PUSH1 0x20 ADD PUSH1 0x4 DUP3 ADD SLOAD DUP2 MSTORE PUSH1 0x20 ADD PUSH1 0x5 DUP3 ADD SLOAD DUP2 MSTORE PUSH1 0x20 ADD PUSH1 0x6 DUP3 ADD SLOAD DUP2 MSTORE POP POP SWAP1 POP SWAP1 JUMP JUMPDEST PUSH1 0x1 PUSH1 0x1 PUSH1 0xA0 SHL SUB DUP3 AND PUSH2 0x69D JUMPI PUSH1 0x0 PUSH1 0x40 MLOAD PUSH4 0x32505749 PUSH1 0xE1 SHL DUP2 MSTORE PUSH1 0x4 ADD PUSH2 0x694 SWAP2 SWAP1 PUSH2 0x13F0 JUMP JUMPDEST PUSH1 0x40 MLOAD DUP1 SWAP2 SUB SWAP1 REVERT JUMPDEST PUSH1 0x0 PUSH2 0x6AA DUP4 DUP4 CALLER PUSH2 0xB74 JUMP JUMPDEST SWAP1 POP DUP4 PUSH1 0x1 PUSH1 0x1 PUSH1 0xA0 SHL SUB AND DUP2 PUSH1 0x1 PUSH1 0x1 PUSH1 0xA0 SHL SUB AND EQ PUSH2 0x6F8 JUMPI PUSH1 0x40 MLOAD PUSH4 0x64283D7B PUSH1 0xE0 SHL DUP2 MSTORE PUSH1 0x1 PUSH1 0x1 PUSH1 0xA0 SHL SUB DUP1 DUP7 AND PUSH1 0x4 DUP4 ADD MSTORE PUSH1 0x24 DUP3 ADD DUP5 SWAP1 MSTORE DUP3 AND PUSH1 0x44 DUP3 ADD MSTORE PUSH1 0x64 ADD PUSH2 0x694 JUMP JUMPDEST POP POP POP POP JUMP JUMPDEST PUSH2 0x706 PUSH2 0xB89 JUMP JUMPDEST PUSH2 0x70E PUSH2 0xBBB JUMP JUMPDEST JUMP JUMPDEST PUSH2 0x72B DUP4 DUP4 DUP4 PUSH1 0x40 MLOAD DUP1 PUSH1 0x20 ADD PUSH1 0x40 MSTORE DUP1 PUSH1 0x0 DUP2 MSTORE POP PUSH2 0x85E JUMP JUMPDEST POP POP POP JUMP JUMPDEST PUSH2 0x4B6 PUSH1 0x0 DUP3 CALLER PUSH2 0xB74 JUMP JUMPDEST PUSH1 0x0 PUSH2 0x3FE DUP3 PUSH2 0xB14 JUMP JUMPDEST PUSH1 0x0 PUSH1 0x1 PUSH1 0x1 PUSH1 0xA0 SHL SUB DUP3 AND PUSH2 0x773 JUMPI PUSH1 0x0 PUSH1 0x40 MLOAD PUSH4 0x22718AD9 PUSH1 0xE2 SHL DUP2 MSTORE PUSH1 0x4 ADD PUSH2 0x694 SWAP2 SWAP1 PUSH2 0x13F0 JUMP JUMPDEST POP PUSH1 0x1 PUSH1 0x1 PUSH1 0xA0 SHL SUB AND PUSH1 0x0 SWAP1 DUP2 MSTORE PUSH1 0x3 PUSH1 0x20 MSTORE PUSH1 0x40 SWAP1 KECCAK256 SLOAD SWAP1 JUMP JUMPDEST PUSH2 0x797 PUSH2 0xB89 JUMP JUMPDEST PUSH2 0x70E PUSH1 0x0 PUSH2 0xC07 JUMP JUMPDEST PUSH2 0x7A9 PUSH2 0xB89 JUMP JUMPDEST PUSH2 0x70E PUSH2 0xC61 JUMP JUMPDEST PUSH1 0x6 SLOAD PUSH2 0x100 SWAP1 DIV PUSH1 0x1 PUSH1 0x1 PUSH1 0xA0 SHL SUB AND SWAP1 JUMP JUMPDEST PUSH1 0x60 PUSH1 0x1 DUP1 SLOAD PUSH2 0x413 SWAP1 PUSH2 0x16EF JUMP JUMPDEST PUSH2 0x7DC PUSH2 0xB89 JUMP JUMPDEST PUSH2 0x4B6 DUP3 DUP3 PUSH2 0xC9E JUMP JUMPDEST PUSH2 0x4B6 CALLER DUP4 DUP4 PUSH2 0xCB8 JUMP JUMPDEST PUSH1 0x0 PUSH1 0x1 PUSH1 0x1 PUSH1 0xFF SHL SUB DUP3 GT ISZERO PUSH2 0x80B JUMPI POP PUSH2 0x1D4C PUSH2 0x810 JUMP JUMPDEST POP PUSH2 0x9C4 JUMPDEST PUSH1 0x0 PUSH2 0x2710 PUSH2 0x81F DUP4 DUP3 PUSH2 0x173F JUMP JUMPDEST PUSH2 0x829 SWAP1 DUP7 PUSH2 0x1752 JUMP JUMPDEST PUSH2 0x833 SWAP2 SWAP1 PUSH2 0x1769 JUMP JUMPDEST PUSH2 0x2710 PUSH2 0x840 DUP5 DUP9 PUSH2 0x1752 JUMP JUMPDEST PUSH2 0x84A SWAP2 SWAP1 PUSH2 0x1769 JUMP JUMPDEST PUSH2 0x854 SWAP2 SWAP1 PUSH2 0x178B JUMP JUMPDEST PUSH1 0xC SSTORE POP POP POP POP POP JUMP JUMPDEST PUSH2 0x869 DUP5 DUP5 DUP5 PUSH2 0x66A JUMP JUMPDEST PUSH2 0x6F8 DUP5 DUP5 DUP5 DUP5 PUSH2 0xD4E JUMP JUMPDEST PUSH1 0x8 PUSH2 0x4B6 DUP3 DUP3 PUSH2 0x17EC JUMP JUMPDEST PUSH1 0x60 PUSH2 0x88C DUP3 PUSH2 0xB14 JUMP JUMPDEST POP PUSH1 0x0 PUSH2 0x8C1 PUSH1 0x40 DUP1 MLOAD DUP1 DUP3 ADD SWAP1 SWAP2 MSTORE PUSH1 0x15 DUP2 MSTORE PUSH21 0x68747470733A2F2F697066732E696F2F697066732F PUSH1 0x58 SHL PUSH1 0x20 DUP3 ADD MSTORE SWAP1 JUMP JUMPDEST SWAP1 POP PUSH1 0x0 DUP2 MLOAD GT PUSH2 0x8E1 JUMPI PUSH1 0x40 MLOAD DUP1 PUSH1 0x20 ADD PUSH1 0x40 MSTORE DUP1 PUSH1 0x0 DUP2 MSTORE POP PUSH2 0x90E JUMP JUMPDEST DUP1 PUSH2 0x8ED PUSH1 0x7 SLOAD PUSH2 0xE65 JUMP JUMPDEST PUSH1 0x40 MLOAD PUSH1 0x20 ADD PUSH2 0x8FE SWAP3 SWAP2 SWAP1 PUSH2 0x18AB JUMP JUMPDEST PUSH1 0x40 MLOAD PUSH1 0x20 DUP2 DUP4 SUB SUB DUP2 MSTORE SWAP1 PUSH1 0x40 MSTORE JUMPDEST SWAP4 SWAP3 POP POP POP JUMP JUMPDEST DUP1 PUSH1 0x0 SUB PUSH2 0x9C6 JUMPI PUSH1 0x40 DUP1 MLOAD PUSH2 0x120 DUP2 ADD DUP3 MSTORE PUSH1 0x6 PUSH1 0xE0 DUP3 ADD SWAP1 DUP2 MSTORE PUSH6 0x27232A26B7B7 PUSH1 0xD1 SHL PUSH2 0x100 DUP4 ADD MSTORE DUP1 DUP3 MSTORE PUSH3 0x4C4B40 PUSH1 0x20 DUP4 ADD DUP2 SWAP1 MSTORE SWAP3 DUP3 ADD DUP4 SWAP1 MSTORE PUSH1 0x60 DUP3 ADD DUP4 SWAP1 MSTORE PUSH1 0x80 DUP3 ADD SWAP3 SWAP1 SWAP3 MSTORE PUSH3 0xA7D8C0 PUSH1 0xA0 DUP3 ADD MSTORE PUSH1 0x0 PUSH1 0xC0 DUP3 ADD MSTORE SWAP1 PUSH1 0x8 SWAP1 DUP2 SWAP1 PUSH2 0x984 SWAP1 DUP3 PUSH2 0x17EC JUMP JUMPDEST POP PUSH1 0x20 DUP3 ADD MLOAD PUSH1 0x1 DUP3 ADD SSTORE PUSH1 0x40 DUP3 ADD MLOAD PUSH1 0x2 DUP3 ADD SSTORE PUSH1 0x60 DUP3 ADD MLOAD PUSH1 0x3 DUP3 ADD SSTORE PUSH1 0x80 DUP3 ADD MLOAD PUSH1 0x4 DUP3 ADD SSTORE PUSH1 0xA0 DUP3 ADD MLOAD PUSH1 0x5 DUP3 ADD SSTORE PUSH1 0xC0 SWAP1 SWAP2 ADD MLOAD PUSH1 0x6 SWAP1 SWAP2 ADD SSTORE POP JUMP JUMPDEST DUP1 PUSH1 0x1 SUB PUSH2 0xA33 JUMPI PUSH1 0x40 DUP1 MLOAD PUSH2 0x120 DUP2 ADD DUP3 MSTORE PUSH1 0x6 PUSH1 0xE0 DUP3 ADD SWAP1 DUP2 MSTORE PUSH6 0x27232A26B7B7 PUSH1 0xD1 SHL PUSH2 0x100 DUP4 ADD MSTORE DUP1 DUP3 MSTORE PUSH3 0x6ACFC0 PUSH1 0x20 DUP4 ADD DUP2 SWAP1 MSTORE SWAP3 DUP3 ADD DUP4 SWAP1 MSTORE PUSH1 0x60 DUP3 ADD DUP4 SWAP1 MSTORE PUSH1 0x80 DUP3 ADD DUP4 SWAP1 MSTORE PUSH1 0xA0 DUP3 ADD SWAP3 SWAP1 SWAP3 MSTORE PUSH1 0x1 PUSH1 0xC0 DUP3 ADD MSTORE SWAP1 PUSH1 0x8 SWAP1 DUP2 SWAP1 PUSH2 0x984 SWAP1 DUP3 PUSH2 0x17EC JUMP JUMPDEST DUP1 PUSH1 0x2 SUB PUSH2 0xAA8 JUMPI PUSH1 0x40 DUP1 MLOAD PUSH2 0x120 DUP2 ADD DUP3 MSTORE PUSH1 0x6 PUSH1 0xE0 DUP3 ADD SWAP1 DUP2 MSTORE PUSH6 0x27232A26B7B7 PUSH1 0xD1 SHL PUSH2 0x100 DUP4 ADD MSTORE DUP1 DUP3 MSTORE PUSH3 0x2DC6C0 PUSH1 0x20 DUP4 ADD MSTORE PUSH3 0x3D0900 SWAP3 DUP3 ADD SWAP3 SWAP1 SWAP3 MSTORE PUSH3 0x1E8480 PUSH1 0x60 DUP3 ADD MSTORE PUSH3 0x4C4B40 PUSH1 0x80 DUP3 ADD MSTORE PUSH3 0xF4240 PUSH1 0xA0 DUP3 ADD MSTORE PUSH1 0x2 PUSH1 0xC0 DUP3 ADD MSTORE SWAP1 PUSH1 0x8 SWAP1 DUP2 SWAP1 PUSH2 0x984 SWAP1 DUP3 PUSH2 0x17EC JUMP JUMPDEST POP JUMP JUMPDEST PUSH1 0x1 PUSH1 0x1 PUSH1 0xA0 SHL SUB SWAP2 DUP3 AND PUSH1 0x0 SWAP1 DUP2 MSTORE PUSH1 0x5 PUSH1 0x20 SWAP1 DUP2 MSTORE PUSH1 0x40 DUP1 DUP4 KECCAK256 SWAP4 SWAP1 SWAP5 AND DUP3 MSTORE SWAP2 SWAP1 SWAP2 MSTORE KECCAK256 SLOAD PUSH1 0xFF AND SWAP1 JUMP JUMPDEST PUSH2 0xAE1 PUSH2 0xB89 JUMP JUMPDEST PUSH1 0x1 PUSH1 0x1 PUSH1 0xA0 SHL SUB DUP2 AND PUSH2 0xB0B JUMPI PUSH1 0x0 PUSH1 0x40 MLOAD PUSH4 0x1E4FBDF7 PUSH1 0xE0 SHL DUP2 MSTORE PUSH1 0x4 ADD PUSH2 0x694 SWAP2 SWAP1 PUSH2 0x13F0 JUMP JUMPDEST PUSH2 0xAA8 DUP2 PUSH2 0xC07 JUMP JUMPDEST PUSH1 0x0 DUP1 PUSH2 0xB20 DUP4 PUSH2 0xF94 JUMP JUMPDEST SWAP1 POP PUSH1 0x1 PUSH1 0x1 PUSH1 0xA0 SHL SUB DUP2 AND PUSH2 0x3FE JUMPI PUSH1 0x40 MLOAD PUSH4 0x7E273289 PUSH1 0xE0 SHL DUP2 MSTORE PUSH1 0x4 DUP2 ADD DUP5 SWAP1 MSTORE PUSH1 0x24 ADD PUSH2 0x694 JUMP JUMPDEST PUSH1 0x0 SWAP1 DUP2 MSTORE PUSH1 0x4 PUSH1 0x20 MSTORE PUSH1 0x40 SWAP1 KECCAK256 SLOAD PUSH1 0x1 PUSH1 0x1 PUSH1 0xA0 SHL SUB AND SWAP1 JUMP JUMPDEST PUSH2 0x72B DUP4 DUP4 DUP4 PUSH1 0x1 PUSH2 0xFAF JUMP JUMPDEST PUSH1 0x0 PUSH2 0xB81 DUP5 DUP5 DUP5 PUSH2 0x10AC JUMP JUMPDEST SWAP5 SWAP4 POP POP POP POP JUMP JUMPDEST CALLER PUSH2 0xB92 PUSH2 0x7B1 JUMP JUMPDEST PUSH1 0x1 PUSH1 0x1 PUSH1 0xA0 SHL SUB AND EQ PUSH2 0x70E JUMPI CALLER PUSH1 0x40 MLOAD PUSH4 0x118CDAA7 PUSH1 0xE0 SHL DUP2 MSTORE PUSH1 0x4 ADD PUSH2 0x694 SWAP2 SWAP1 PUSH2 0x13F0 JUMP JUMPDEST PUSH2 0xBC3 PUSH2 0x10C1 JUMP JUMPDEST PUSH1 0x6 DUP1 SLOAD PUSH1 0xFF NOT AND SWAP1 SSTORE PUSH32 0x5DB9EE0A495BF2E6FF9C91A7834C1BA4FDD244A5E8AA4E537BD38AEAE4B073AA CALLER JUMPDEST PUSH1 0x40 MLOAD PUSH2 0xBFD SWAP2 SWAP1 PUSH2 0x13F0 JUMP JUMPDEST PUSH1 0x40 MLOAD DUP1 SWAP2 SUB SWAP1 LOG1 JUMP JUMPDEST PUSH1 0x6 DUP1 SLOAD PUSH1 0x1 PUSH1 0x1 PUSH1 0xA0 SHL SUB DUP4 DUP2 AND PUSH2 0x100 DUP2 DUP2 MUL PUSH2 0x100 PUSH1 0x1 PUSH1 0xA8 SHL SUB NOT DUP6 AND OR SWAP1 SWAP5 SSTORE PUSH1 0x40 MLOAD SWAP4 SWAP1 SWAP3 DIV AND SWAP2 DUP3 SWAP1 PUSH32 0x8BE0079C531659141344CD1FD0A4F28419497F9722A3DAAFE3B4186F6B6457E0 SWAP1 PUSH1 0x0 SWAP1 LOG3 POP POP JUMP JUMPDEST PUSH2 0xC69 PUSH2 0x10E4 JUMP JUMPDEST PUSH1 0x6 DUP1 SLOAD PUSH1 0xFF NOT AND PUSH1 0x1 OR SWAP1 SSTORE PUSH32 0x62E78CEA01BEE320CD4E420270B5EA74000D11B0C9F74754EBDBFC544B05A258 PUSH2 0xBF0 CALLER SWAP1 JUMP JUMPDEST PUSH2 0x4B6 DUP3 DUP3 PUSH1 0x40 MLOAD DUP1 PUSH1 0x20 ADD PUSH1 0x40 MSTORE DUP1 PUSH1 0x0 DUP2 MSTORE POP PUSH2 0x1108 JUMP JUMPDEST PUSH1 0x1 PUSH1 0x1 PUSH1 0xA0 SHL SUB DUP3 AND PUSH2 0xCE1 JUMPI DUP2 PUSH1 0x40 MLOAD PUSH4 0xB611743 PUSH1 0xE3 SHL DUP2 MSTORE PUSH1 0x4 ADD PUSH2 0x694 SWAP2 SWAP1 PUSH2 0x13F0 JUMP JUMPDEST PUSH1 0x1 PUSH1 0x1 PUSH1 0xA0 SHL SUB DUP4 DUP2 AND PUSH1 0x0 DUP2 DUP2 MSTORE PUSH1 0x5 PUSH1 0x20 SWAP1 DUP2 MSTORE PUSH1 0x40 DUP1 DUP4 KECCAK256 SWAP5 DUP8 AND DUP1 DUP5 MSTORE SWAP5 DUP3 MSTORE SWAP2 DUP3 SWAP1 KECCAK256 DUP1 SLOAD PUSH1 0xFF NOT AND DUP7 ISZERO ISZERO SWAP1 DUP2 OR SWAP1 SWAP2 SSTORE SWAP2 MLOAD SWAP2 DUP3 MSTORE PUSH32 0x17307EAB39AB6107E8899845AD3D59BD9653F200F220920489CA2B5937696C31 SWAP2 ADD PUSH1 0x40 MLOAD DUP1 SWAP2 SUB SWAP1 LOG3 POP POP POP JUMP JUMPDEST PUSH1 0x1 PUSH1 0x1 PUSH1 0xA0 SHL SUB DUP4 AND EXTCODESIZE ISZERO PUSH2 0x6F8 JUMPI PUSH1 0x40 MLOAD PUSH4 0xA85BD01 PUSH1 0xE1 SHL DUP2 MSTORE PUSH1 0x1 PUSH1 0x1 PUSH1 0xA0 SHL SUB DUP5 AND SWAP1 PUSH4 0x150B7A02 SWAP1 PUSH2 0xD90 SWAP1 CALLER SWAP1 DUP9 SWAP1 DUP8 SWAP1 DUP8 SWAP1 PUSH1 0x4 ADD PUSH2 0x18DA JUMP JUMPDEST PUSH1 0x20 PUSH1 0x40 MLOAD DUP1 DUP4 SUB DUP2 PUSH1 0x0 DUP8 GAS CALL SWAP3 POP POP POP DUP1 ISZERO PUSH2 0xDCB JUMPI POP PUSH1 0x40 DUP1 MLOAD PUSH1 0x1F RETURNDATASIZE SWAP1 DUP2 ADD PUSH1 0x1F NOT AND DUP3 ADD SWAP1 SWAP3 MSTORE PUSH2 0xDC8 SWAP2 DUP2 ADD SWAP1 PUSH2 0x1917 JUMP JUMPDEST PUSH1 0x1 JUMPDEST PUSH2 0xE2B JUMPI RETURNDATASIZE DUP1 DUP1 ISZERO PUSH2 0xDF9 JUMPI PUSH1 0x40 MLOAD SWAP2 POP PUSH1 0x1F NOT PUSH1 0x3F RETURNDATASIZE ADD AND DUP3 ADD PUSH1 0x40 MSTORE RETURNDATASIZE DUP3 MSTORE RETURNDATASIZE PUSH1 0x0 PUSH1 0x20 DUP5 ADD RETURNDATACOPY PUSH2 0xDFE JUMP JUMPDEST PUSH1 0x60 SWAP2 POP JUMPDEST POP DUP1 MLOAD PUSH1 0x0 SUB PUSH2 0xE23 JUMPI DUP4 PUSH1 0x40 MLOAD PUSH4 0x32505749 PUSH1 0xE1 SHL DUP2 MSTORE PUSH1 0x4 ADD PUSH2 0x694 SWAP2 SWAP1 PUSH2 0x13F0 JUMP JUMPDEST DUP1 MLOAD DUP2 PUSH1 0x20 ADD REVERT JUMPDEST PUSH1 0x1 PUSH1 0x1 PUSH1 0xE0 SHL SUB NOT DUP2 AND PUSH4 0xA85BD01 PUSH1 0xE1 SHL EQ PUSH2 0xE5E JUMPI DUP4 PUSH1 0x40 MLOAD PUSH4 0x32505749 PUSH1 0xE1 SHL DUP2 MSTORE PUSH1 0x4 ADD PUSH2 0x694 SWAP2 SWAP1 PUSH2 0x13F0 JUMP JUMPDEST POP POP POP POP POP JUMP JUMPDEST PUSH1 0x60 PUSH1 0x0 JUMPDEST PUSH1 0x20 DUP2 PUSH1 0xFF AND LT DUP1 ISZERO PUSH2 0xE9E JUMPI POP DUP3 DUP2 PUSH1 0xFF AND PUSH1 0x20 DUP2 LT PUSH2 0xE8D JUMPI PUSH2 0xE8D PUSH2 0x1934 JUMP JUMPDEST BYTE PUSH1 0xF8 SHL PUSH1 0x1 PUSH1 0x1 PUSH1 0xF8 SHL SUB NOT AND ISZERO ISZERO JUMPDEST ISZERO PUSH2 0xEB5 JUMPI DUP1 PUSH2 0xEAD DUP2 PUSH2 0x194A JUMP JUMPDEST SWAP2 POP POP PUSH2 0xE6A JUMP JUMPDEST PUSH1 0x0 DUP2 PUSH1 0xFF AND PUSH1 0x1 PUSH1 0x1 PUSH1 0x40 SHL SUB DUP2 GT ISZERO PUSH2 0xED2 JUMPI PUSH2 0xED2 PUSH2 0x156E JUMP JUMPDEST PUSH1 0x40 MLOAD SWAP1 DUP1 DUP3 MSTORE DUP1 PUSH1 0x1F ADD PUSH1 0x1F NOT AND PUSH1 0x20 ADD DUP3 ADD PUSH1 0x40 MSTORE DUP1 ISZERO PUSH2 0xEFC JUMPI PUSH1 0x20 DUP3 ADD DUP2 DUP1 CALLDATASIZE DUP4 CALLDATACOPY ADD SWAP1 POP JUMPDEST POP SWAP1 POP PUSH1 0x0 SWAP2 POP JUMPDEST PUSH1 0x20 DUP3 PUSH1 0xFF AND LT DUP1 ISZERO PUSH2 0xF38 JUMPI POP DUP4 DUP3 PUSH1 0xFF AND PUSH1 0x20 DUP2 LT PUSH2 0xF27 JUMPI PUSH2 0xF27 PUSH2 0x1934 JUMP JUMPDEST BYTE PUSH1 0xF8 SHL PUSH1 0x1 PUSH1 0x1 PUSH1 0xF8 SHL SUB NOT AND ISZERO ISZERO JUMPDEST ISZERO PUSH2 0x90E JUMPI DUP4 DUP3 PUSH1 0xFF AND PUSH1 0x20 DUP2 LT PUSH2 0xF52 JUMPI PUSH2 0xF52 PUSH2 0x1934 JUMP JUMPDEST BYTE PUSH1 0xF8 SHL DUP2 DUP4 PUSH1 0xFF AND DUP2 MLOAD DUP2 LT PUSH2 0xF6B JUMPI PUSH2 0xF6B PUSH2 0x1934 JUMP JUMPDEST PUSH1 0x20 ADD ADD SWAP1 PUSH1 0x1 PUSH1 0x1 PUSH1 0xF8 SHL SUB NOT AND SWAP1 DUP2 PUSH1 0x0 BYTE SWAP1 MSTORE8 POP DUP2 PUSH2 0xF8C DUP2 PUSH2 0x194A JUMP JUMPDEST SWAP3 POP POP PUSH2 0xF04 JUMP JUMPDEST PUSH1 0x0 SWAP1 DUP2 MSTORE PUSH1 0x2 PUSH1 0x20 MSTORE PUSH1 0x40 SWAP1 KECCAK256 SLOAD PUSH1 0x1 PUSH1 0x1 PUSH1 0xA0 SHL SUB AND SWAP1 JUMP JUMPDEST DUP1 DUP1 PUSH2 0xFC3 JUMPI POP PUSH1 0x1 PUSH1 0x1 PUSH1 0xA0 SHL SUB DUP3 AND ISZERO ISZERO JUMPDEST ISZERO PUSH2 0x107C JUMPI PUSH1 0x0 PUSH2 0xFD3 DUP5 PUSH2 0xB14 JUMP JUMPDEST SWAP1 POP PUSH1 0x1 PUSH1 0x1 PUSH1 0xA0 SHL SUB DUP4 AND ISZERO DUP1 ISZERO SWAP1 PUSH2 0xFFF JUMPI POP DUP3 PUSH1 0x1 PUSH1 0x1 PUSH1 0xA0 SHL SUB AND DUP2 PUSH1 0x1 PUSH1 0x1 PUSH1 0xA0 SHL SUB AND EQ ISZERO JUMPDEST DUP1 ISZERO PUSH2 0x1012 JUMPI POP PUSH2 0x1010 DUP2 DUP5 PUSH2 0xAAB JUMP JUMPDEST ISZERO JUMPDEST ISZERO PUSH2 0x1032 JUMPI DUP3 PUSH1 0x40 MLOAD PUSH4 0xA9FBF51F PUSH1 0xE0 SHL DUP2 MSTORE PUSH1 0x4 ADD PUSH2 0x694 SWAP2 SWAP1 PUSH2 0x13F0 JUMP JUMPDEST DUP2 ISZERO PUSH2 0x107A JUMPI DUP4 DUP6 PUSH1 0x1 PUSH1 0x1 PUSH1 0xA0 SHL SUB AND DUP3 PUSH1 0x1 PUSH1 0x1 PUSH1 0xA0 SHL SUB AND PUSH32 0x8C5BE1E5EBEC7D5BD14F71427D1E84F3DD0314C0F7B2291E5B200AC8C7C3B925 PUSH1 0x40 MLOAD PUSH1 0x40 MLOAD DUP1 SWAP2 SUB SWAP1 LOG4 JUMPDEST POP JUMPDEST POP POP PUSH1 0x0 SWAP1 DUP2 MSTORE PUSH1 0x4 PUSH1 0x20 MSTORE PUSH1 0x40 SWAP1 KECCAK256 DUP1 SLOAD PUSH1 0x1 PUSH1 0x1 PUSH1 0xA0 SHL SUB NOT AND PUSH1 0x1 PUSH1 0x1 PUSH1 0xA0 SHL SUB SWAP3 SWAP1 SWAP3 AND SWAP2 SWAP1 SWAP2 OR SWAP1 SSTORE JUMP JUMPDEST PUSH1 0x0 PUSH2 0x10B6 PUSH2 0x10E4 JUMP JUMPDEST PUSH2 0xB81 DUP5 DUP5 DUP5 PUSH2 0x111F JUMP JUMPDEST PUSH1 0x6 SLOAD PUSH1 0xFF AND PUSH2 0x70E JUMPI PUSH1 0x40 MLOAD PUSH4 0x8DFC202B PUSH1 0xE0 SHL DUP2 MSTORE PUSH1 0x4 ADD PUSH1 0x40 MLOAD DUP1 SWAP2 SUB SWAP1 REVERT JUMPDEST PUSH1 0x6 SLOAD PUSH1 0xFF AND ISZERO PUSH2 0x70E JUMPI PUSH1 0x40 MLOAD PUSH4 0xD93C0665 PUSH1 0xE0 SHL DUP2 MSTORE PUSH1 0x4 ADD PUSH1 0x40 MLOAD DUP1 SWAP2 SUB SWAP1 REVERT JUMPDEST PUSH2 0x1112 DUP4 DUP4 PUSH2 0x1213 JUMP JUMPDEST PUSH2 0x72B PUSH1 0x0 DUP5 DUP5 DUP5 PUSH2 0xD4E JUMP JUMPDEST PUSH1 0x0 DUP1 PUSH2 0x112B DUP5 PUSH2 0xF94 JUMP JUMPDEST SWAP1 POP PUSH1 0x1 PUSH1 0x1 PUSH1 0xA0 SHL SUB DUP4 AND ISZERO PUSH2 0x1147 JUMPI PUSH2 0x1147 DUP2 DUP5 DUP7 PUSH2 0x1278 JUMP JUMPDEST PUSH1 0x1 PUSH1 0x1 PUSH1 0xA0 SHL SUB DUP2 AND ISZERO PUSH2 0x1185 JUMPI PUSH2 0x1164 PUSH1 0x0 DUP6 PUSH1 0x0 DUP1 PUSH2 0xFAF JUMP JUMPDEST PUSH1 0x1 PUSH1 0x1 PUSH1 0xA0 SHL SUB DUP2 AND PUSH1 0x0 SWAP1 DUP2 MSTORE PUSH1 0x3 PUSH1 0x20 MSTORE PUSH1 0x40 SWAP1 KECCAK256 DUP1 SLOAD PUSH1 0x0 NOT ADD SWAP1 SSTORE JUMPDEST PUSH1 0x1 PUSH1 0x1 PUSH1 0xA0 SHL SUB DUP6 AND ISZERO PUSH2 0x11B4 JUMPI PUSH1 0x1 PUSH1 0x1 PUSH1 0xA0 SHL SUB DUP6 AND PUSH1 0x0 SWAP1 DUP2 MSTORE PUSH1 0x3 PUSH1 0x20 MSTORE PUSH1 0x40 SWAP1 KECCAK256 DUP1 SLOAD PUSH1 0x1 ADD SWAP1 SSTORE JUMPDEST PUSH1 0x0 DUP5 DUP2 MSTORE PUSH1 0x2 PUSH1 0x20 MSTORE PUSH1 0x40 DUP1 DUP3 KECCAK256 DUP1 SLOAD PUSH1 0x1 PUSH1 0x1 PUSH1 0xA0 SHL SUB NOT AND PUSH1 0x1 PUSH1 0x1 PUSH1 0xA0 SHL SUB DUP10 DUP2 AND SWAP2 DUP3 OR SWAP1 SWAP3 SSTORE SWAP2 MLOAD DUP8 SWAP4 SWAP2 DUP6 AND SWAP2 PUSH32 0xDDF252AD1BE2C89B69C2B068FC378DAA952BA7F163C4A11628F55A4DF523B3EF SWAP2 LOG4 SWAP5 SWAP4 POP POP POP POP JUMP JUMPDEST PUSH1 0x1 PUSH1 0x1 PUSH1 0xA0 SHL SUB DUP3 AND PUSH2 0x123D JUMPI PUSH1 0x0 PUSH1 0x40 MLOAD PUSH4 0x32505749 PUSH1 0xE1 SHL DUP2 MSTORE PUSH1 0x4 ADD PUSH2 0x694 SWAP2 SWAP1 PUSH2 0x13F0 JUMP JUMPDEST PUSH1 0x0 PUSH2 0x124B DUP4 DUP4 PUSH1 0x0 PUSH2 0xB74 JUMP JUMPDEST SWAP1 POP PUSH1 0x1 PUSH1 0x1 PUSH1 0xA0 SHL SUB DUP2 AND ISZERO PUSH2 0x72B JUMPI PUSH1 0x0 PUSH1 0x40 MLOAD PUSH4 0x39E35637 PUSH1 0xE1 SHL DUP2 MSTORE PUSH1 0x4 ADD PUSH2 0x694 SWAP2 SWAP1 PUSH2 0x13F0 JUMP JUMPDEST PUSH2 0x1283 DUP4 DUP4 DUP4 PUSH2 0x12DC JUMP JUMPDEST PUSH2 0x72B JUMPI PUSH1 0x1 PUSH1 0x1 PUSH1 0xA0 SHL SUB DUP4 AND PUSH2 0x12B1 JUMPI PUSH1 0x40 MLOAD PUSH4 0x7E273289 PUSH1 0xE0 SHL DUP2 MSTORE PUSH1 0x4 DUP2 ADD DUP3 SWAP1 MSTORE PUSH1 0x24 ADD PUSH2 0x694 JUMP JUMPDEST PUSH1 0x40 MLOAD PUSH4 0x177E802F PUSH1 0xE0 SHL DUP2 MSTORE PUSH1 0x1 PUSH1 0x1 PUSH1 0xA0 SHL SUB DUP4 AND PUSH1 0x4 DUP3 ADD MSTORE PUSH1 0x24 DUP2 ADD DUP3 SWAP1 MSTORE PUSH1 0x44 ADD PUSH2 0x694 JUMP JUMPDEST PUSH1 0x0 PUSH1 0x1 PUSH1 0x1 PUSH1 0xA0 SHL SUB DUP4 AND ISZERO DUP1 ISZERO SWAP1 PUSH2 0xB81 JUMPI POP DUP3 PUSH1 0x1 PUSH1 0x1 PUSH1 0xA0 SHL SUB AND DUP5 PUSH1 0x1 PUSH1 0x1 PUSH1 0xA0 SHL SUB AND EQ DUP1 PUSH2 0x1316 JUMPI POP PUSH2 0x1316 DUP5 DUP5 PUSH2 0xAAB JUMP JUMPDEST DUP1 PUSH2 0xB81 JUMPI POP DUP3 PUSH1 0x1 PUSH1 0x1 PUSH1 0xA0 SHL SUB AND PUSH2 0x132F DUP4 PUSH2 0xB4C JUMP JUMPDEST PUSH1 0x1 PUSH1 0x1 PUSH1 0xA0 SHL SUB AND EQ SWAP5 SWAP4 POP POP POP POP JUMP JUMPDEST PUSH1 0x1 PUSH1 0x1 PUSH1 0xE0 SHL SUB NOT DUP2 AND DUP2 EQ PUSH2 0xAA8 JUMPI PUSH1 0x0 DUP1 REVERT JUMPDEST PUSH1 0x0 PUSH1 0x20 DUP3 DUP5 SUB SLT ISZERO PUSH2 0x1369 JUMPI PUSH1 0x0 DUP1 REVERT JUMPDEST DUP2 CALLDATALOAD PUSH2 0x90E DUP2 PUSH2 0x1341 JUMP JUMPDEST PUSH1 0x0 JUMPDEST DUP4 DUP2 LT ISZERO PUSH2 0x138F JUMPI DUP2 DUP2 ADD MLOAD DUP4 DUP3 ADD MSTORE PUSH1 0x20 ADD PUSH2 0x1377 JUMP JUMPDEST POP POP PUSH1 0x0 SWAP2 ADD MSTORE JUMP JUMPDEST PUSH1 0x0 DUP2 MLOAD DUP1 DUP5 MSTORE PUSH2 0x13B0 DUP2 PUSH1 0x20 DUP7 ADD PUSH1 0x20 DUP7 ADD PUSH2 0x1374 JUMP JUMPDEST PUSH1 0x1F ADD PUSH1 0x1F NOT AND SWAP3 SWAP1 SWAP3 ADD PUSH1 0x20 ADD SWAP3 SWAP2 POP POP JUMP JUMPDEST PUSH1 0x20 DUP2 MSTORE PUSH1 0x0 PUSH2 0x90E PUSH1 0x20 DUP4 ADD DUP5 PUSH2 0x1398 JUMP JUMPDEST PUSH1 0x0 PUSH1 0x20 DUP3 DUP5 SUB SLT ISZERO PUSH2 0x13E9 JUMPI PUSH1 0x0 DUP1 REVERT JUMPDEST POP CALLDATALOAD SWAP2 SWAP1 POP JUMP JUMPDEST PUSH1 0x1 PUSH1 0x1 PUSH1 0xA0 SHL SUB SWAP2 SWAP1 SWAP2 AND DUP2 MSTORE PUSH1 0x20 ADD SWAP1 JUMP JUMPDEST DUP1 CALLDATALOAD PUSH1 0x1 PUSH1 0x1 PUSH1 0xA0 SHL SUB DUP2 AND DUP2 EQ PUSH2 0x141B JUMPI PUSH1 0x0 DUP1 REVERT JUMPDEST SWAP2 SWAP1 POP JUMP JUMPDEST PUSH1 0x0 DUP1 PUSH1 0x40 DUP4 DUP6 SUB SLT ISZERO PUSH2 0x1433 JUMPI PUSH1 0x0 DUP1 REVERT JUMPDEST PUSH2 0x143C DUP4 PUSH2 0x1404 JUMP JUMPDEST SWAP5 PUSH1 0x20 SWAP4 SWAP1 SWAP4 ADD CALLDATALOAD SWAP4 POP POP POP JUMP JUMPDEST PUSH1 0x0 DUP1 PUSH1 0x0 PUSH1 0x60 DUP5 DUP7 SUB SLT ISZERO PUSH2 0x145F JUMPI PUSH1 0x0 DUP1 REVERT JUMPDEST POP POP DUP2 CALLDATALOAD SWAP4 PUSH1 0x20 DUP4 ADD CALLDATALOAD SWAP4 POP PUSH1 0x40 SWAP1 SWAP3 ADD CALLDATALOAD SWAP2 SWAP1 POP JUMP JUMPDEST PUSH1 0x20 DUP2 MSTORE PUSH1 0x0 DUP3 MLOAD PUSH1 0xE0 PUSH1 0x20 DUP5 ADD MSTORE PUSH2 0x1493 PUSH2 0x100 DUP5 ADD DUP3 PUSH2 0x1398 JUMP JUMPDEST SWAP1 POP PUSH1 0x20 DUP5 ADD MLOAD PUSH1 0x40 DUP5 ADD MSTORE PUSH1 0x40 DUP5 ADD MLOAD PUSH1 0x60 DUP5 ADD MSTORE PUSH1 0x60 DUP5 ADD MLOAD PUSH1 0x80 DUP5 ADD MSTORE PUSH1 0x80 DUP5 ADD MLOAD PUSH1 0xA0 DUP5 ADD MSTORE PUSH1 0xA0 DUP5 ADD MLOAD PUSH1 0xC0 DUP5 ADD MSTORE PUSH1 0xC0 DUP5 ADD MLOAD PUSH1 0xE0 DUP5 ADD MSTORE DUP1 SWAP2 POP POP SWAP3 SWAP2 POP POP JUMP JUMPDEST PUSH1 0x0 DUP1 PUSH1 0x0 PUSH1 0x60 DUP5 DUP7 SUB SLT ISZERO PUSH2 0x14F0 JUMPI PUSH1 0x0 DUP1 REVERT JUMPDEST PUSH2 0x14F9 DUP5 PUSH2 0x1404 JUMP JUMPDEST SWAP3 POP PUSH2 0x1507 PUSH1 0x20 DUP6 ADD PUSH2 0x1404 JUMP JUMPDEST SWAP2 POP PUSH1 0x40 DUP5 ADD CALLDATALOAD SWAP1 POP SWAP3 POP SWAP3 POP SWAP3 JUMP JUMPDEST PUSH1 0x0 PUSH1 0x20 DUP3 DUP5 SUB SLT ISZERO PUSH2 0x1529 JUMPI PUSH1 0x0 DUP1 REVERT JUMPDEST PUSH2 0x90E DUP3 PUSH2 0x1404 JUMP JUMPDEST PUSH1 0x0 DUP1 PUSH1 0x40 DUP4 DUP6 SUB SLT ISZERO PUSH2 0x1545 JUMPI PUSH1 0x0 DUP1 REVERT JUMPDEST PUSH2 0x154E DUP4 PUSH2 0x1404 JUMP JUMPDEST SWAP2 POP PUSH1 0x20 DUP4 ADD CALLDATALOAD DUP1 ISZERO ISZERO DUP2 EQ PUSH2 0x1563 JUMPI PUSH1 0x0 DUP1 REVERT JUMPDEST DUP1 SWAP2 POP POP SWAP3 POP SWAP3 SWAP1 POP JUMP JUMPDEST PUSH4 0x4E487B71 PUSH1 0xE0 SHL PUSH1 0x0 MSTORE PUSH1 0x41 PUSH1 0x4 MSTORE PUSH1 0x24 PUSH1 0x0 REVERT JUMPDEST PUSH1 0x0 PUSH1 0x1 PUSH1 0x1 PUSH1 0x40 SHL SUB DUP1 DUP5 GT ISZERO PUSH2 0x159E JUMPI PUSH2 0x159E PUSH2 0x156E JUMP JUMPDEST PUSH1 0x40 MLOAD PUSH1 0x1F DUP6 ADD PUSH1 0x1F NOT SWAP1 DUP2 AND PUSH1 0x3F ADD AND DUP2 ADD SWAP1 DUP3 DUP3 GT DUP2 DUP4 LT OR ISZERO PUSH2 0x15C6 JUMPI PUSH2 0x15C6 PUSH2 0x156E JUMP JUMPDEST DUP2 PUSH1 0x40 MSTORE DUP1 SWAP4 POP DUP6 DUP2 MSTORE DUP7 DUP7 DUP7 ADD GT ISZERO PUSH2 0x15DF JUMPI PUSH1 0x0 DUP1 REVERT JUMPDEST DUP6 DUP6 PUSH1 0x20 DUP4 ADD CALLDATACOPY PUSH1 0x0 PUSH1 0x20 DUP8 DUP4 ADD ADD MSTORE POP POP POP SWAP4 SWAP3 POP POP POP JUMP JUMPDEST PUSH1 0x0 DUP1 PUSH1 0x0 DUP1 PUSH1 0x80 DUP6 DUP8 SUB SLT ISZERO PUSH2 0x160F JUMPI PUSH1 0x0 DUP1 REVERT JUMPDEST PUSH2 0x1618 DUP6 PUSH2 0x1404 JUMP JUMPDEST SWAP4 POP PUSH2 0x1626 PUSH1 0x20 DUP7 ADD PUSH2 0x1404 JUMP JUMPDEST SWAP3 POP PUSH1 0x40 DUP6 ADD CALLDATALOAD SWAP2 POP PUSH1 0x60 DUP6 ADD CALLDATALOAD PUSH1 0x1 PUSH1 0x1 PUSH1 0x40 SHL SUB DUP2 GT ISZERO PUSH2 0x1648 JUMPI PUSH1 0x0 DUP1 REVERT JUMPDEST DUP6 ADD PUSH1 0x1F DUP2 ADD DUP8 SGT PUSH2 0x1659 JUMPI PUSH1 0x0 DUP1 REVERT JUMPDEST PUSH2 0x1668 DUP8 DUP3 CALLDATALOAD PUSH1 0x20 DUP5 ADD PUSH2 0x1584 JUMP JUMPDEST SWAP2 POP POP SWAP3 SWAP6 SWAP2 SWAP5 POP SWAP3 POP JUMP JUMPDEST PUSH1 0x0 PUSH1 0x20 DUP3 DUP5 SUB SLT ISZERO PUSH2 0x1686 JUMPI PUSH1 0x0 DUP1 REVERT JUMPDEST DUP2 CALLDATALOAD PUSH1 0x1 PUSH1 0x1 PUSH1 0x40 SHL SUB DUP2 GT ISZERO PUSH2 0x169C JUMPI PUSH1 0x0 DUP1 REVERT JUMPDEST DUP3 ADD PUSH1 0x1F DUP2 ADD DUP5 SGT PUSH2 0x16AD JUMPI PUSH1 0x0 DUP1 REVERT JUMPDEST PUSH2 0xB81 DUP5 DUP3 CALLDATALOAD PUSH1 0x20 DUP5 ADD PUSH2 0x1584 JUMP JUMPDEST PUSH1 0x0 DUP1 PUSH1 0x40 DUP4 DUP6 SUB SLT ISZERO PUSH2 0x16CF JUMPI PUSH1 0x0 DUP1 REVERT JUMPDEST PUSH2 0x16D8 DUP4 PUSH2 0x1404 JUMP JUMPDEST SWAP2 POP PUSH2 0x16E6 PUSH1 0x20 DUP5 ADD PUSH2 0x1404 JUMP JUMPDEST SWAP1 POP SWAP3 POP SWAP3 SWAP1 POP JUMP JUMPDEST PUSH1 0x1 DUP2 DUP2 SHR SWAP1 DUP3 AND DUP1 PUSH2 0x1703 JUMPI PUSH1 0x7F DUP3 AND SWAP2 POP JUMPDEST PUSH1 0x20 DUP3 LT DUP2 SUB PUSH2 0x1723 JUMPI PUSH4 0x4E487B71 PUSH1 0xE0 SHL PUSH1 0x0 MSTORE PUSH1 0x22 PUSH1 0x4 MSTORE PUSH1 0x24 PUSH1 0x0 REVERT JUMPDEST POP SWAP2 SWAP1 POP JUMP JUMPDEST PUSH4 0x4E487B71 PUSH1 0xE0 SHL PUSH1 0x0 MSTORE PUSH1 0x11 PUSH1 0x4 MSTORE PUSH1 0x24 PUSH1 0x0 REVERT JUMPDEST DUP2 DUP2 SUB DUP2 DUP2 GT ISZERO PUSH2 0x3FE JUMPI PUSH2 0x3FE PUSH2 0x1729 JUMP JUMPDEST DUP1 DUP3 MUL DUP2 ISZERO DUP3 DUP3 DIV DUP5 EQ OR PUSH2 0x3FE JUMPI PUSH2 0x3FE PUSH2 0x1729 JUMP JUMPDEST PUSH1 0x0 DUP3 PUSH2 0x1786 JUMPI PUSH4 0x4E487B71 PUSH1 0xE0 SHL PUSH1 0x0 MSTORE PUSH1 0x12 PUSH1 0x4 MSTORE PUSH1 0x24 PUSH1 0x0 REVERT JUMPDEST POP DIV SWAP1 JUMP JUMPDEST DUP1 DUP3 ADD DUP1 DUP3 GT ISZERO PUSH2 0x3FE JUMPI PUSH2 0x3FE PUSH2 0x1729 JUMP JUMPDEST PUSH1 0x1F DUP3 GT ISZERO PUSH2 0x72B JUMPI PUSH1 0x0 DUP2 DUP2 MSTORE PUSH1 0x20 DUP2 KECCAK256 PUSH1 0x1F DUP6 ADD PUSH1 0x5 SHR DUP2 ADD PUSH1 0x20 DUP7 LT ISZERO PUSH2 0x17C5 JUMPI POP DUP1 JUMPDEST PUSH1 0x1F DUP6 ADD PUSH1 0x5 SHR DUP3 ADD SWAP2 POP JUMPDEST DUP2 DUP2 LT ISZERO PUSH2 0x17E4 JUMPI DUP3 DUP2 SSTORE PUSH1 0x1 ADD PUSH2 0x17D1 JUMP JUMPDEST POP POP POP POP POP POP JUMP JUMPDEST DUP2 MLOAD PUSH1 0x1 PUSH1 0x1 PUSH1 0x40 SHL SUB DUP2 GT ISZERO PUSH2 0x1805 JUMPI PUSH2 0x1805 PUSH2 0x156E JUMP JUMPDEST PUSH2 0x1819 DUP2 PUSH2 0x1813 DUP5 SLOAD PUSH2 0x16EF JUMP JUMPDEST DUP5 PUSH2 0x179E JUMP JUMPDEST PUSH1 0x20 DUP1 PUSH1 0x1F DUP4 GT PUSH1 0x1 DUP2 EQ PUSH2 0x184E JUMPI PUSH1 0x0 DUP5 ISZERO PUSH2 0x1836 JUMPI POP DUP6 DUP4 ADD MLOAD JUMPDEST PUSH1 0x0 NOT PUSH1 0x3 DUP7 SWAP1 SHL SHR NOT AND PUSH1 0x1 DUP6 SWAP1 SHL OR DUP6 SSTORE PUSH2 0x17E4 JUMP JUMPDEST PUSH1 0x0 DUP6 DUP2 MSTORE PUSH1 0x20 DUP2 KECCAK256 PUSH1 0x1F NOT DUP7 AND SWAP2 JUMPDEST DUP3 DUP2 LT ISZERO PUSH2 0x187D JUMPI DUP9 DUP7 ADD MLOAD DUP3 SSTORE SWAP5 DUP5 ADD SWAP5 PUSH1 0x1 SWAP1 SWAP2 ADD SWAP1 DUP5 ADD PUSH2 0x185E JUMP JUMPDEST POP DUP6 DUP3 LT ISZERO PUSH2 0x189B JUMPI DUP8 DUP6 ADD MLOAD PUSH1 0x0 NOT PUSH1 0x3 DUP9 SWAP1 SHL PUSH1 0xF8 AND SHR NOT AND DUP2 SSTORE JUMPDEST POP POP POP POP POP PUSH1 0x1 SWAP1 DUP2 SHL ADD SWAP1 SSTORE POP JUMP JUMPDEST PUSH1 0x0 DUP4 MLOAD PUSH2 0x18BD DUP2 DUP5 PUSH1 0x20 DUP9 ADD PUSH2 0x1374 JUMP JUMPDEST DUP4 MLOAD SWAP1 DUP4 ADD SWAP1 PUSH2 0x18D1 DUP2 DUP4 PUSH1 0x20 DUP9 ADD PUSH2 0x1374 JUMP JUMPDEST ADD SWAP5 SWAP4 POP POP POP POP JUMP JUMPDEST PUSH1 0x1 PUSH1 0x1 PUSH1 0xA0 SHL SUB DUP6 DUP2 AND DUP3 MSTORE DUP5 AND PUSH1 0x20 DUP3 ADD MSTORE PUSH1 0x40 DUP2 ADD DUP4 SWAP1 MSTORE PUSH1 0x80 PUSH1 0x60 DUP3 ADD DUP2 SWAP1 MSTORE PUSH1 0x0 SWAP1 PUSH2 0x190D SWAP1 DUP4 ADD DUP5 PUSH2 0x1398 JUMP JUMPDEST SWAP7 SWAP6 POP POP POP POP POP POP JUMP JUMPDEST PUSH1 0x0 PUSH1 0x20 DUP3 DUP5 SUB SLT ISZERO PUSH2 0x1929 JUMPI PUSH1 0x0 DUP1 REVERT JUMPDEST DUP2 MLOAD PUSH2 0x90E DUP2 PUSH2 0x1341 JUMP JUMPDEST PUSH4 0x4E487B71 PUSH1 0xE0 SHL PUSH1 0x0 MSTORE PUSH1 0x32 PUSH1 0x4 MSTORE PUSH1 0x24 PUSH1 0x0 REVERT JUMPDEST PUSH1 0x0 PUSH1 0xFF DUP3 AND PUSH1 0xFF DUP2 SUB PUSH2 0x1960 JUMPI PUSH2 0x1960 PUSH2 0x1729 JUMP JUMPDEST PUSH1 0x1 ADD SWAP3 SWAP2 POP POP JUMP INVALID LOG2 PUSH5 0x6970667358 0x22 SLT KECCAK256 0x25 DUP3 PC 0xDA DELEGATECALL 0xB6 DIV 0xD9 0xE2 0xB9 ISZERO 0xCD DUP5 0xCE 0x4F SWAP11 GAS RETURNDATACOPY BALANCE TIMESTAMP LT SELFDESTRUCT SAR 0xE5 0x4C 0xE4 0xDB 0xC8 SELFDESTRUCT 0xF SWAP1 0x27 PUSH5 0x736F6C6343 STOP ADDMOD EQ STOP CALLER 0x29 0xD 0xEC 0xD9 SLOAD DUP12 PUSH3 0xA8D603 GASLIMIT 0xA9 DUP9 CODESIZE PUSH16 0xC84BA6BC95484008F6362F93160EF3E5 PUSH4 0xA2646970 PUSH7 0x73582212206935 0xE2 SHL CALLDATALOAD 0x4D DUP6 OR 0xB5 SWAP7 0xDE INVALID 0xEA 0xCE POP 0x2B 0xAF NUMBER EXTCODECOPY STOP INVALID 0xE4 0xC9 0xBF DUP2 0xCD PUSH18 0x1B4A78CA7264736F6C634300081400330000 "
        },
        "methodIdentifiers": {
          "createNFTMonDefault(uint256)": "eb2fd879",
          "deployedNFTs(uint256)": "13df8223",
          "getDeployedNFTs()": "b8889e64",
          "getMintedNFTs(address)": "62766dec",
          "getMonAmountPerUser(address)": "211432a8",
          "mateNFTMons(address,address,string)": "a33208ee",
          "setRandomNumber(uint256)": "d6bfea28"
        }
      }
    }
  }
}