{
  "_format": "hh-sol-artifact-1",
  "contractName": "NFTFactory",
  "sourceName": "contracts/FactoryNFTMon.sol",
  "abi": [
    {
      "inputs": [
        {
          "internalType": "uint256",
          "name": "_number",
          "type": "uint256"
        }
      ],
      "name": "createNFTMonDefault",
      "outputs": [],
      "stateMutability": "nonpayable",
      "type": "function"
    },
    {
      "inputs": [
        {
          "internalType": "uint256",
          "name": "",
          "type": "uint256"
        }
      ],
      "name": "deployedNFTs",
      "outputs": [
        {
          "internalType": "address",
          "name": "",
          "type": "address"
        }
      ],
      "stateMutability": "view",
      "type": "function"
    },
    {
      "inputs": [],
      "name": "getDeployedNFTs",
      "outputs": [
        {
          "internalType": "address[]",
          "name": "",
          "type": "address[]"
        }
      ],
      "stateMutability": "view",
      "type": "function"
    },
    {
      "inputs": [
        {
          "internalType": "address",
          "name": "_minter",
          "type": "address"
        }
      ],
      "name": "getMintedNFTs",
      "outputs": [
        {
          "internalType": "address[]",
          "name": "",
          "type": "address[]"
        }
      ],
      "stateMutability": "view",
      "type": "function"
    },
    {
      "inputs": [
        {
          "internalType": "address",
          "name": "_user",
          "type": "address"
        }
      ],
      "name": "getMonAmountPerUser",
      "outputs": [
        {
          "internalType": "uint256",
          "name": "",
          "type": "uint256"
        }
      ],
      "stateMutability": "view",
      "type": "function"
    },
    {
      "inputs": [
        {
          "internalType": "address",
          "name": "_fatherNFT",
          "type": "address"
        },
        {
          "internalType": "address",
          "name": "_motherNFT",
          "type": "address"
        },
        {
          "internalType": "string",
          "name": "_name",
          "type": "string"
        }
      ],
      "name": "mateNFTMons",
      "outputs": [],
      "stateMutability": "nonpayable",
      "type": "function"
    },
    {
      "inputs": [
        {
          "internalType": "uint256",
          "name": "_randomNumber",
          "type": "uint256"
        }
      ],
      "name": "setRandomNumber",
      "outputs": [],
      "stateMutability": "nonpayable",
      "type": "function"
    }
  ],
  "bytecode": "0x6080604052651aba4b4a102a60015534801561001a57600080fd5b506129668061002a6000396000f3fe60806040523480156200001157600080fd5b5060043610620000765760003560e01c806313df8223146200007b578063211432a814620000aa57806362766dec14620000e5578063a33208ee146200010b578063b8889e641462000124578063d6bfea28146200012e578063eb2fd8791462000144575b600080fd5b620000926200008c3660046200090e565b6200015b565b604051620000a1919062000928565b60405180910390f35b620000d6620000bb36600462000959565b6001600160a01b031660009081526002602052604090205490565b604051908152602001620000a1565b620000fc620000f636600462000959565b62000186565b604051620000a191906200097e565b620001226200011c366004620009cd565b620001fe565b005b620000fc620006bc565b620001226200013f3660046200090e565b600155565b62000122620001553660046200090e565b62000720565b600081815481106200016c57600080fd5b6000918252602090912001546001600160a01b0316905081565b6001600160a01b038116600090815260036020908152604091829020805483518184028101840190945280845260609392830182828015620001f257602002820191906000526020600020905b81546001600160a01b03168152600190910190602001808311620001d3575b50505050509050919050565b6000336040516200020f9062000900565b6200021b919062000928565b604051809103906000f08015801562000238573d6000803e3d6000fd5b50336000908152600260205260408120805492935090620002598362000a63565b9091555050336000908152600360209081526040808320805460018101825590845291832090910180546001600160a01b0319166001600160a01b03858116919091179091558151630cfb6f6160e11b81529151908816916319f6dec291600480830192869291908290030181865afa158015620002db573d6000803e3d6000fd5b505050506040513d6000823e601f3d908101601f1916820160405262000305919081019062000b8c565b90506000856001600160a01b03166319f6dec26040518163ffffffff1660e01b8152600401600060405180830381865afa15801562000348573d6000803e3d6000fd5b505050506040513d6000823e601f3d908101601f1916820160405262000372919081019062000b8c565b60405163c47f002760e01b81529091506001600160a01b0384169063c47f002790620003a5908890889060040162000c3f565b600060405180830381600087803b158015620003c057600080fd5b505af1158015620003d5573d6000803e3d6000fd5b50505050826001600160a01b03166311523f4e8360c001518360c001516001546040518463ffffffff1660e01b8152600401620004159392919062000c6e565b600060405180830381600087803b1580156200043057600080fd5b505af115801562000445573d6000803e3d6000fd5b50505050826001600160a01b031663ae8134e0836080015183608001516001546040518463ffffffff1660e01b8152600401620004859392919062000c6e565b600060405180830381600087803b158015620004a057600080fd5b505af1158015620004b5573d6000803e3d6000fd5b505050604080840151838201516001549251631053bcb360e21b81526001600160a01b038816945063414ef2cc93620004f393929160040162000c6e565b600060405180830381600087803b1580156200050e57600080fd5b505af115801562000523573d6000803e3d6000fd5b50505050826001600160a01b03166381e52e56836060015183606001516001546040518463ffffffff1660e01b8152600401620005639392919062000c6e565b600060405180830381600087803b1580156200057e57600080fd5b505af115801562000593573d6000803e3d6000fd5b50505050826001600160a01b0316630aed67fc8360a001518360a001516001546040518463ffffffff1660e01b8152600401620005d39392919062000c6e565b600060405180830381600087803b158015620005ee57600080fd5b505af115801562000603573d6000803e3d6000fd5b50505050826001600160a01b03166386134d2a836020015183602001516001546040518463ffffffff1660e01b8152600401620006439392919062000c6e565b600060405180830381600087803b1580156200065e57600080fd5b505af115801562000673573d6000803e3d6000fd5b505060008054600181018255908052600080516020620029118339815191520180546001600160a01b0319166001600160a01b0396909616959095179094555050505050505050565b606060008054806020026020016040519081016040528092919081815260200182805480156200071657602002820191906000526020600020905b81546001600160a01b03168152600190910190602001808311620006f7575b5050505050905090565b600033604051620007319062000900565b6200073d919062000928565b604051809103906000f0801580156200075a573d6000803e3d6000fd5b503360009081526002602052604081208054929350906200077b8362000a63565b9091555050336000908152600360209081526040822080546001810182559083529082200180546001600160a01b0319166001600160a01b038416179055829003620008245760405163706d35b360e11b8152600060048201526001600160a01b0382169063e0da6b66906024015b600060405180830381600087803b1580156200080557600080fd5b505af11580156200081a573d6000803e3d6000fd5b50505050620008c1565b816001036200085b5760405163706d35b360e11b8152600160048201526001600160a01b0382169063e0da6b6690602401620007ea565b81600203620008c15760405163706d35b360e11b8152600260048201526001600160a01b0382169063e0da6b6690602401600060405180830381600087803b158015620008a757600080fd5b505af1158015620008bc573d6000803e3d6000fd5b505050505b60008054600181018255908052600080516020620029118339815191520180546001600160a01b0319166001600160a01b039290921691909117905550565b611c8c8062000c8583390190565b6000602082840312156200092157600080fd5b5035919050565b6001600160a01b0391909116815260200190565b80356001600160a01b03811681146200095457600080fd5b919050565b6000602082840312156200096c57600080fd5b62000977826200093c565b9392505050565b6020808252825182820181905260009190848201906040850190845b81811015620009c15783516001600160a01b0316835292840192918401916001016200099a565b50909695505050505050565b60008060008060608587031215620009e457600080fd5b620009ef856200093c565b9350620009ff602086016200093c565b925060408501356001600160401b038082111562000a1c57600080fd5b818701915087601f83011262000a3157600080fd5b81358181111562000a4157600080fd5b88602082850101111562000a5457600080fd5b95989497505060200194505050565b60006001820162000a8457634e487b7160e01b600052601160045260246000fd5b5060010190565b634e487b7160e01b600052604160045260246000fd5b60405160e081016001600160401b038111828210171562000ac65762000ac662000a8b565b60405290565b604051601f8201601f191681016001600160401b038111828210171562000af75762000af762000a8b565b604052919050565b600082601f83011262000b1157600080fd5b81516001600160401b0381111562000b2d5762000b2d62000a8b565b602062000b43601f8301601f1916820162000acc565b828152858284870101111562000b5857600080fd5b60005b8381101562000b7857858101830151828201840152820162000b5b565b506000928101909101919091529392505050565b60006020828403121562000b9f57600080fd5b81516001600160401b038082111562000bb757600080fd5b9083019060e0828603121562000bcc57600080fd5b62000bd662000aa1565b82518281111562000be657600080fd5b62000bf48782860162000aff565b8252506020830151602082015260408301516040820152606083015160608201526080830151608082015260a083015160a082015260c083015160c082015280935050505092915050565b60208152816020820152818360408301376000818301604090810191909152601f909201601f19160101919050565b928352602083019190915260408201526060019056fe60806040523480156200001157600080fd5b5060405162001c8c38038062001c8c83398101604081905262000034916200013a565b806040518060400160405280600681526020016527232a26b7b760d11b815250604051806040016040528060048152602001634e46544d60e01b815250816000908162000082919062000211565b50600162000091828262000211565b50506006805460ff19169055506001600160a01b038116620000cd57604051631e4fbdf760e01b81526000600482015260240160405180910390fd5b620000d881620000e0565b5050620002dd565b600680546001600160a01b03838116610100818102610100600160a81b031985161790945560405193909204169182907f8be0079c531659141344cd1fd0a4f28419497f9722a3daafe3b4186f6b6457e090600090a35050565b6000602082840312156200014d57600080fd5b81516001600160a01b03811681146200016557600080fd5b9392505050565b634e487b7160e01b600052604160045260246000fd5b600181811c908216806200019757607f821691505b602082108103620001b857634e487b7160e01b600052602260045260246000fd5b50919050565b601f8211156200020c57600081815260208120601f850160051c81016020861015620001e75750805b601f850160051c820191505b818110156200020857828155600101620001f3565b5050505b505050565b81516001600160401b038111156200022d576200022d6200016c565b62000245816200023e845462000182565b84620001be565b602080601f8311600181146200027d5760008415620002645750858301515b600019600386901b1c1916600185901b17855562000208565b600085815260208120601f198616915b82811015620002ae578886015182559484019460019091019084016200028d565b5085821015620002cd5787850151600019600388901b60f8161c191681555b5050505050600190811b01905550565b61199f80620002ed6000396000f3fe608060405234801561001057600080fd5b506004361061018b5760003560e01c806301ffc9a71461019057806306fdde03146101b8578063081812fc146101cd578063095ea7b3146101ed5780630aed67fc1461020257806311523f4e1461021557806319f6dec21461022857806323b872dd1461023d5780633f4ba83a14610250578063414ef2cc1461020257806342842e0e1461025857806342966c681461026b5780635c975abb1461027e5780636352211e1461028957806370a082311461029c578063715018a6146102bd5780637d9a94f3146102c557806381e52e56146102025780638456cb59146102d857806386134d2a146102025780638da5cb5b146102e05780638e871b07146102e857806395d89b41146102f6578063a1448194146102fe578063a22cb46514610311578063aa3ec0a914610324578063ae8134e01461032d578063b88d4fde14610340578063c47f002714610353578063c87b56dd14610366578063e0da6b6614610379578063e985e9c51461038c578063f2fde38b1461039f575b600080fd5b6101a361019e366004611357565b6103b2565b60405190151581526020015b60405180910390f35b6101c0610404565b6040516101af91906113c4565b6101e06101db3660046113d7565b610496565b6040516101af91906113f0565b6102006101fb366004611420565b6104ab565b005b61020061021036600461144a565b6104ba565b61020061022336600461144a565b610527565b61023061054a565b6040516101af9190611476565b61020061024b3660046114db565b61066a565b6102006106fe565b6102006102663660046114db565b610710565b6102006102793660046113d7565b610730565b60065460ff166101a3565b6101e06102973660046113d7565b61073c565b6102af6102aa366004611517565b610747565b6040519081526020016101af565b61020061078f565b6102006102d33660046113d7565b600755565b6102006107a1565b6101e06107b1565b6102af6001600160ff1b0381565b6101c06107c5565b61020061030c366004611420565b6107d4565b61020061031f366004611532565b6107e6565b6102af60075481565b61020061033b36600461144a565b6107f1565b61020061034e3660046115f9565b61085e565b610200610361366004611674565b610875565b6101c06103743660046113d7565b610881565b6102006103873660046113d7565b610915565b6101a361039a3660046116bc565b610aab565b6102006103ad366004611517565b610ad9565b60006001600160e01b031982166380ac58cd60e01b14806103e357506001600160e01b03198216635b5e139f60e01b145b806103fe57506301ffc9a760e01b6001600160e01b03198316145b92915050565b606060008054610413906116ef565b80601f016020809104026020016040519081016040528092919081815260200182805461043f906116ef565b801561048c5780601f106104615761010080835404028352916020019161048c565b820191906000526020600020905b81548152906001019060200180831161046f57829003601f168201915b5050505050905090565b60006104a182610b14565b506103fe82610b4c565b6104b6828233610b67565b5050565b60006001600160ff1b038211156104d45750611d4c6104d9565b506109c45b60006127106104e8838261173f565b6104f29086611752565b6104fc9190611769565b6127106105098488611752565b6105139190611769565b61051d919061178b565b6009555050505050565b60006001600160ff1b0382111561053f575082610542565b50815b600e55505050565b61058a6040518060e00160405280606081526020016000815260200160008152602001600081526020016000815260200160008152602001600081525090565b60086040518060e00160405290816000820180546105a7906116ef565b80601f01602080910402602001604051908101604052809291908181526020018280546105d3906116ef565b80156106205780601f106105f557610100808354040283529160200191610620565b820191906000526020600020905b81548152906001019060200180831161060357829003601f168201915b505050505081526020016001820154815260200160028201548152602001600382015481526020016004820154815260200160058201548152602001600682015481525050905090565b6001600160a01b03821661069d576000604051633250574960e11b815260040161069491906113f0565b60405180910390fd5b60006106aa838333610b74565b9050836001600160a01b0316816001600160a01b0316146106f8576040516364283d7b60e01b81526001600160a01b0380861660048301526024820184905282166044820152606401610694565b50505050565b610706610b89565b61070e610bbb565b565b61072b8383836040518060200160405280600081525061085e565b505050565b6104b660008233610b74565b60006103fe82610b14565b60006001600160a01b0382166107735760006040516322718ad960e21b815260040161069491906113f0565b506001600160a01b031660009081526003602052604090205490565b610797610b89565b61070e6000610c07565b6107a9610b89565b61070e610c61565b60065461010090046001600160a01b031690565b606060018054610413906116ef565b6107dc610b89565b6104b68282610c9e565b6104b6338383610cb8565b60006001600160ff1b0382111561080b5750611d4c610810565b506109c45b600061271061081f838261173f565b6108299086611752565b6108339190611769565b6127106108408488611752565b61084a9190611769565b610854919061178b565b600c555050505050565b61086984848461066a565b6106f884848484610d4e565b60086104b682826117ec565b606061088c82610b14565b5060006108c160408051808201909152601581527468747470733a2f2f697066732e696f2f697066732f60581b602082015290565b905060008151116108e1576040518060200160405280600081525061090e565b806108ed600754610e65565b6040516020016108fe9291906118ab565b6040516020818303038152906040525b9392505050565b806000036109c6576040805161012081018252600660e082019081526527232a26b7b760d11b610100830152808252624c4b406020830181905292820183905260608201839052608082019290925262a7d8c060a0820152600060c082015290600890819061098490826117ec565b506020820151600182015560408201516002820155606082015160038201556080820151600482015560a0820151600582015560c09091015160069091015550565b80600103610a33576040805161012081018252600660e082019081526527232a26b7b760d11b610100830152808252626acfc060208301819052928201839052606082018390526080820183905260a0820192909252600160c082015290600890819061098490826117ec565b80600203610aa8576040805161012081018252600660e082019081526527232a26b7b760d11b610100830152808252622dc6c06020830152623d090092820192909252621e84806060820152624c4b406080820152620f424060a0820152600260c082015290600890819061098490826117ec565b50565b6001600160a01b03918216600090815260056020908152604080832093909416825291909152205460ff1690565b610ae1610b89565b6001600160a01b038116610b0b576000604051631e4fbdf760e01b815260040161069491906113f0565b610aa881610c07565b600080610b2083610f94565b90506001600160a01b0381166103fe57604051637e27328960e01b815260048101849052602401610694565b6000908152600460205260409020546001600160a01b031690565b61072b8383836001610faf565b6000610b818484846110ac565b949350505050565b33610b926107b1565b6001600160a01b03161461070e573360405163118cdaa760e01b815260040161069491906113f0565b610bc36110c1565b6006805460ff191690557f5db9ee0a495bf2e6ff9c91a7834c1ba4fdd244a5e8aa4e537bd38aeae4b073aa335b604051610bfd91906113f0565b60405180910390a1565b600680546001600160a01b03838116610100818102610100600160a81b031985161790945560405193909204169182907f8be0079c531659141344cd1fd0a4f28419497f9722a3daafe3b4186f6b6457e090600090a35050565b610c696110e4565b6006805460ff191660011790557f62e78cea01bee320cd4e420270b5ea74000d11b0c9f74754ebdbfc544b05a258610bf03390565b6104b6828260405180602001604052806000815250611108565b6001600160a01b038216610ce15781604051630b61174360e31b815260040161069491906113f0565b6001600160a01b03838116600081815260056020908152604080832094871680845294825291829020805460ff191686151590811790915591519182527f17307eab39ab6107e8899845ad3d59bd9653f200f220920489ca2b5937696c31910160405180910390a3505050565b6001600160a01b0383163b156106f857604051630a85bd0160e11b81526001600160a01b0384169063150b7a0290610d909033908890879087906004016118da565b6020604051808303816000875af1925050508015610dcb575060408051601f3d908101601f19168201909252610dc891810190611917565b60015b610e2b573d808015610df9576040519150601f19603f3d011682016040523d82523d6000602084013e610dfe565b606091505b508051600003610e235783604051633250574960e11b815260040161069491906113f0565b805181602001fd5b6001600160e01b03198116630a85bd0160e11b14610e5e5783604051633250574960e11b815260040161069491906113f0565b5050505050565b606060005b60208160ff16108015610e9e5750828160ff1660208110610e8d57610e8d611934565b1a60f81b6001600160f81b03191615155b15610eb55780610ead8161194a565b915050610e6a565b60008160ff166001600160401b03811115610ed257610ed261156e565b6040519080825280601f01601f191660200182016040528015610efc576020820181803683370190505b509050600091505b60208260ff16108015610f385750838260ff1660208110610f2757610f27611934565b1a60f81b6001600160f81b03191615155b1561090e57838260ff1660208110610f5257610f52611934565b1a60f81b818360ff1681518110610f6b57610f6b611934565b60200101906001600160f81b031916908160001a90535081610f8c8161194a565b925050610f04565b6000908152600260205260409020546001600160a01b031690565b8080610fc357506001600160a01b03821615155b1561107c576000610fd384610b14565b90506001600160a01b03831615801590610fff5750826001600160a01b0316816001600160a01b031614155b801561101257506110108184610aab565b155b15611032578260405163a9fbf51f60e01b815260040161069491906113f0565b811561107a5783856001600160a01b0316826001600160a01b03167f8c5be1e5ebec7d5bd14f71427d1e84f3dd0314c0f7b2291e5b200ac8c7c3b92560405160405180910390a45b505b5050600090815260046020526040902080546001600160a01b0319166001600160a01b0392909216919091179055565b60006110b66110e4565b610b8184848461111f565b60065460ff1661070e57604051638dfc202b60e01b815260040160405180910390fd5b60065460ff161561070e5760405163d93c066560e01b815260040160405180910390fd5b6111128383611213565b61072b6000848484610d4e565b60008061112b84610f94565b90506001600160a01b0383161561114757611147818486611278565b6001600160a01b0381161561118557611164600085600080610faf565b6001600160a01b038116600090815260036020526040902080546000190190555b6001600160a01b038516156111b4576001600160a01b0385166000908152600360205260409020805460010190555b60008481526002602052604080822080546001600160a01b0319166001600160a01b0389811691821790925591518793918516917fddf252ad1be2c89b69c2b068fc378daa952ba7f163c4a11628f55a4df523b3ef91a4949350505050565b6001600160a01b03821661123d576000604051633250574960e11b815260040161069491906113f0565b600061124b83836000610b74565b90506001600160a01b0381161561072b5760006040516339e3563760e11b815260040161069491906113f0565b6112838383836112dc565b61072b576001600160a01b0383166112b157604051637e27328960e01b815260048101829052602401610694565b60405163177e802f60e01b81526001600160a01b038316600482015260248101829052604401610694565b60006001600160a01b03831615801590610b815750826001600160a01b0316846001600160a01b0316148061131657506113168484610aab565b80610b815750826001600160a01b031661132f83610b4c565b6001600160a01b031614949350505050565b6001600160e01b031981168114610aa857600080fd5b60006020828403121561136957600080fd5b813561090e81611341565b60005b8381101561138f578181015183820152602001611377565b50506000910152565b600081518084526113b0816020860160208601611374565b601f01601f19169290920160200192915050565b60208152600061090e6020830184611398565b6000602082840312156113e957600080fd5b5035919050565b6001600160a01b0391909116815260200190565b80356001600160a01b038116811461141b57600080fd5b919050565b6000806040838503121561143357600080fd5b61143c83611404565b946020939093013593505050565b60008060006060848603121561145f57600080fd5b505081359360208301359350604090920135919050565b602081526000825160e06020840152611493610100840182611398565b9050602084015160408401526040840151606084015260608401516080840152608084015160a084015260a084015160c084015260c084015160e08401528091505092915050565b6000806000606084860312156114f057600080fd5b6114f984611404565b925061150760208501611404565b9150604084013590509250925092565b60006020828403121561152957600080fd5b61090e82611404565b6000806040838503121561154557600080fd5b61154e83611404565b91506020830135801515811461156357600080fd5b809150509250929050565b634e487b7160e01b600052604160045260246000fd5b60006001600160401b038084111561159e5761159e61156e565b604051601f8501601f19908116603f011681019082821181831017156115c6576115c661156e565b816040528093508581528686860111156115df57600080fd5b858560208301376000602087830101525050509392505050565b6000806000806080858703121561160f57600080fd5b61161885611404565b935061162660208601611404565b92506040850135915060608501356001600160401b0381111561164857600080fd5b8501601f8101871361165957600080fd5b61166887823560208401611584565b91505092959194509250565b60006020828403121561168657600080fd5b81356001600160401b0381111561169c57600080fd5b8201601f810184136116ad57600080fd5b610b8184823560208401611584565b600080604083850312156116cf57600080fd5b6116d883611404565b91506116e660208401611404565b90509250929050565b600181811c9082168061170357607f821691505b60208210810361172357634e487b7160e01b600052602260045260246000fd5b50919050565b634e487b7160e01b600052601160045260246000fd5b818103818111156103fe576103fe611729565b80820281158282048414176103fe576103fe611729565b60008261178657634e487b7160e01b600052601260045260246000fd5b500490565b808201808211156103fe576103fe611729565b601f82111561072b57600081815260208120601f850160051c810160208610156117c55750805b601f850160051c820191505b818110156117e4578281556001016117d1565b505050505050565b81516001600160401b038111156118055761180561156e565b6118198161181384546116ef565b8461179e565b602080601f83116001811461184e57600084156118365750858301515b600019600386901b1c1916600185901b1785556117e4565b600085815260208120601f198616915b8281101561187d5788860151825594840194600190910190840161185e565b508582101561189b5787850151600019600388901b60f8161c191681555b5050505050600190811b01905550565b600083516118bd818460208801611374565b8351908301906118d1818360208801611374565b01949350505050565b6001600160a01b038581168252841660208201526040810183905260806060820181905260009061190d90830184611398565b9695505050505050565b60006020828403121561192957600080fd5b815161090e81611341565b634e487b7160e01b600052603260045260246000fd5b600060ff821660ff810361196057611960611729565b6001019291505056fea2646970667358221220258258daf4b604d9e2b915cd84ce4f9a5a3e314210ff1de54ce4dbc8ff0f902764736f6c63430008140033290decd9548b62a8d60345a988386fc84ba6bc95484008f6362f93160ef3e563a26469706673582212206935e21b354d8517b596defeeace502baf433c00fee4c9bf81cd711b4a78ca7264736f6c63430008140033",
  "linkReferences": {},
  "deployedLinkReferences": {}
}